:100000000C9463000C948B000C948B000C948B006C
:100010000C948B000C948B000C948B000C94A40615
:100020000C948B000C948B000C948B000C948B0024
:100030000C948B000C948B000C948B000C948B0014
:100040000C945A060C948B000C944C070C942607C5
:100050000C948B000C948B000C948B000C948B00F4
:100060000C947E070C948B000000000023002600F7
:10007000290000000000240027002A0000000008DA
:10008000000201000003040700000000000000005F
:10009000010204081020408001020408102001021F
:1000A0000408102000000000250028002B00040494
:1000B0000404040404040202020202020303030310
:1000C000030302009D0811241FBECFEFD8E0DEBF5E
:1000D000CDBF11E0A0E0B1E0E6EAF9E102C0059091
:1000E0000D92AA38B107D9F723E0AAE8B1E001C020
:1000F0001D92A730B207E1F710E0C3E6D0E004C0DC
:100100002197FE010E94CB0CC236D107C9F70E948D
:10011000F3080C94D10C0C940000833081F028F487
:10012000813099F08230A9F008958730A9F08830A5
:10013000C9F08430B1F4809180008F7D03C080913C
:1001400080008F7780938000089584B58F7784BD79
:10015000089584B58F7DFBCF8091B0008F77809319
:10016000B00008958091B0008F7DF9CF1F93CF9399
:10017000DF93282F30E0F901E458FF4F8491F90113
:10018000E057FF4FD491F901E255FF4FC491CC23C2
:10019000A9F0162F81110E948D00EC2FF0E0EE0FD8
:1001A000FF1FEC55FF4FA591B4918FB7F894EC91D8
:1001B000111108C0D095DE23DC938FBFDF91CF9162
:1001C0001F910895DE2BF8CFCF93DF9390E0FC01D1
:1001D000E057FF4F249182559F4FFC018491882363
:1001E000D1F090E0880F991FFC01EE58FF4FA591C8
:1001F000B491FC01EC55FF4FC591D49161110EC033
:100200009FB7F8948C91E22FE0958E238C932881F0
:10021000E223E8839FBFDF91CF9108958FB7F894D1
:10022000EC91E22BEC938FBFF6CFCF92DF92EF925F
:10023000FF920F931F93CF938C018091000189301F
:1002400059F08F3F09F44BC0CF911F910F91FF9050
:10025000EF90DF90CF900895E2ECF0E0C491C7FDFD
:10026000F3CF61E089E00E94E400C1114EC0980123
:1002700050E040E062E17AE780E090E00E94890C83
:1002800069017A0181E0C81AD108E108F10885B551
:10029000887F846085BD9801220F331FA4EFB1E0F1
:1002A0000E94A80C28EE33E040E050E00E94670C6A
:1002B000C13009F4B4C0C23009F4C3C0C111C4CF05
:1002C000C7BC2093420230934302409344025093B0
:1002D000450280916E00826080936E00B5CF89E008
:1002E00080930001E2ECF0E0C491CF3F09F4ACCF81
:1002F000C13009F43DC018F1C23009F457C0C7FD40
:10030000A3CF61E089E00E94E400980150E040E062
:10031000C23009F06DC064E274EF80E090E00E94AA
:10032000890C69017A0181E0C81AD108E108F10855
:100330008091B100887F85608093B100ACCF14BC00
:1003400015BC84B5826084BD85B5816085BDE7EB51
:10035000F0E0E491F0E0EE0FFF1FEC55FF4F8591C8
:100360009491E9E9F0E0E491E0933902C0E079CFBB
:1003700010928000109281008091810088608093AB
:10038000810080918100816080938100E7EBF0E043
:10039000E491F0E0EE0FFF1FEC55FF4F8591949133
:1003A000E9E9F0E0E491E09338025BCF1092B0000D
:1003B0001092B1008091B00082608093B000809173
:1003C000B10081608093B100E7EBF0E0E491F0E0F0
:1003D000EE0FFF1FEC55FF4F8591949190933702DC
:1003E00080933602E9E9F0E0E491E093350239CFF9
:1003F00060E072E18AE790E00E94890C69017A016D
:1004000081E0C81AD108E108F108C13009F043CFF2
:1004100080918100887F8160809381003CCFD09261
:100420008900C092880020933E0230933F0240939F
:1004300040025093410280916F00826080936F0070
:1004400003CFC092B30020933A0230933B02409313
:100450003C0250933D028091700082608093700056
:10046000F3CE8E50806480937C0080917A0080640B
:1004700080937A0080917A0086FDFCCF809178008D
:100480009091790008953FB7F8948091310290914E
:100490003202A0913302B091340226B5A89B05C068
:1004A0002F3F19F00196A11DB11D3FBFBA2FA92FF3
:1004B000982F8827BC01CD01620F711D811D911DF0
:1004C00042E0660F771F881F991F4A95D1F708955C
:1004D0008F929F92AF92BF92CF92DF92EF92FF9254
:1004E0004B015C010E9443026B017C010E944302AC
:1004F0006C197D098E099F09683E7340810591053D
:10050000A8F321E0821A9108A108B10888EEC80E6C
:1005100083E0D81EE11CF11C81149104A104B104F4
:1005200029F7FF90EF90DF90CF90BF90AF909F9012
:100530008F900895E0912202F0912302309729F0E4
:1005400010921F0210921E0209940895CF93DF9318
:10055000AC01E0912402F09125023097F1F09091E6
:100560002102809120029817C0F090E0292F30E0FE
:100570002617370754F4D901A657BE4F240F351F4D
:10058000E90128812C939F5FF1CF109221026093A3
:100590002002CB01DF91CF910994DF91CF91089593
:1005A000AF92BF92CF92DF92EF92FF920F931F9381
:1005B000CF93DF936C017B018B01040F151FEB01BF
:1005C0005E01AE18BF08C017D10759F06991D60176
:1005D000ED91FC910190F081E02DC6010995892BE8
:1005E00079F7C501DF91CF911F910F91FF90EF90A7
:1005F000DF90CF90BF90AF900895FC01538D448D54
:10060000252F30E0842F90E0821B930B541710F0BD
:10061000CF96089501970895FC01918D828D9817CA
:1006200061F0A28DAE0FBF2FB11D5D968C91928DA2
:100630009F5F9F73928F90E008958FEF9FEF0895D3
:10064000FC01918D828D981731F0828DE80FF11D9C
:10065000858D90E008958FEF9FEF0895FC01918DB7
:10066000228D892F90E0805C9F4F821B91098F73B0
:100670009927089586E492E00E942E0321E0892BB9
:1006800009F420E0822F089580E090E0892B29F082
:100690000E943A0381110C9400000895FC01A48D7E
:1006A000A80FB92FB11DA35ABF4F2C91848D90E094
:1006B00001968F739927848FA689B7892C93A08977
:1006C000B1898C91837080648C93938D848D981301
:1006D00006C00288F389E02D80818F7D8083089594
:1006E000EF92FF920F931F93CF93DF93EC0181E082
:1006F000888F9B8D8C8D98131AC0E889F989808129
:1007000085FF15C09FB7F894EE89FF896083E8895B
:10071000F98980818370806480839FBF81E090E04D
:10072000DF91CF911F910F91FF90EF900895F62EDA
:100730000B8D10E00F5F1F4F0F731127E02E8C8D74
:100740008E110CC00FB607FCFACFE889F9898081B9
:1007500085FFF5CFCE010E944E03F1CFEB8DEC0F5C
:10076000FD2FF11DE35AFF4FF0829FB7F8940B8FD6
:10077000EA89FB8980818062CFCFCF93DF93EC0140
:10078000888D8823B9F0AA89BB89E889F9898C9179
:1007900085FD03C0808186FD0DC00FB607FCF7CF35
:1007A0008C9185FFF2CF808185FFEDCFCE010E9435
:1007B0004E03E9CFDF91CF9108952091D001260F0C
:1007C0003327331F21323105ECF42091F401FC0171
:1007D00090E080E0243069F082E00895A091D0019B
:1007E0002191AC0140555E4FA40FB52FB11D2C9344
:1007F0000196861798F38091D001680F6093D0011D
:1008000080E0089581E008951092F40181E08093E2
:10081000F6011092F50161E082E10E94B60061E00C
:1008200083E10E94B600E9EBF0E080818E7F808357
:1008300080818D7F808388E48093B80085E48093F5
:10084000BC0008950895E091210280912002E817EC
:1008500030F4F0E0E657FE4F808190E008958FEF8E
:100860009FEF089590912102809120022FEF3FEF9A
:10087000981748F4E92FF0E0E657FE4F208130E06A
:100880009F5F90932102C901089580912002909169
:100890002102891B990B0895CF93DF93CB01EA01C5
:1008A000642F0E94DD03CE01DF91CF910895CF9395
:1008B000DF931F92CDB7DEB7698361E0CE01019669
:1008C0000E94DD0381E090E00F90DF91CF910895C9
:1008D000089590E080E00895CF93C0912802609140
:1008E000290283EE92E00E9457046C2F83EE92E07F
:1008F000CF910C945704CF93DF93EC0160E08E818D
:100900000E94B60061E08E810E94B60060E08E8198
:100910000E94B6008BE891E00197F1F7DF91CF914B
:100920000895CF92DF92EF92FF920F931F93CF9390
:10093000DF936C017C0187E0E80EF11CD0E0C0E0A1
:10094000062F10E0B8010C2E02C0759567950A9429
:10095000E2F76170F70181917F010E94B600219654
:10096000C430D10579F7C601DF91CF911F910F9166
:10097000FF90EF90DF90CF900C947B04CF92DF92AA
:10098000EF92FF920F931F93CF93DF93EC01F62E1C
:10099000642F8C810E94B6008D818F3F19F060E03A
:1009A0000E94B6000F2D10E08F8584FF25C06E01D8
:1009B00087E0C80ED11CF12CE12CB8010E2C02C02E
:1009C000759567950A94E2F76170F60181916F0160
:1009D0000E94B600FFEFEF1AFF0A88E0E816F10464
:1009E00061F7CE01DF91CF911F910F91FF90EF90B2
:1009F000DF90CF900C947B04B80184E075956795E7
:100A00008A95E1F7CE010E9491046F2DCE01DF910E
:100A1000CF911F910F91FF90EF90DF90CF900C94AA
:100A2000910440E0682F8FEE92E00C94BE0481E0C8
:100A30000E9411058BE39FE10197F1F70895CF9391
:100A4000DF93823029F49091FE0298609093FE0229
:100A5000809302031092030380E48093040380E1F7
:100A60008093050380E58093060361E08091F302A3
:100A70000E94E4008091F4028F3F19F061E00E942F
:100A8000E40061E08091F5020E94E400CFEED2E044
:100A90009E012F5E32408091FE0284FD0BC084E0F7
:100AA00090E021962817390744F461E08E810E9476
:100AB000E400EECF88E090E0F4CF8BE39DE0019777
:100AC000F1F760E08091F3020E94B60060E080914F
:100AD000F5020E94B6008091F4028F3F19F060E0A9
:100AE0000E94B6008091FE0284FD34C063E08FEE68
:100AF00092E00E949104CBE4D6E4CE010197F1F795
:100B000063E08FEE92E00E9491042197F1F763E099
:100B10008FEE92E00E94910483E592E00197F1F755
:100B200062E08FEE92E00E9491048091FE0280626A
:100B30000E94110584E08093FF028CE00E94110561
:100B40000E94170582E08093000386E0DF91CF9139
:100B50000C94110580620E9411058BE496E40197C4
:100B6000F1F78091FE0280620E94110583E592E018
:100B70000197F1F78091FE0280620E941105D5CFA6
:100B800090910203691710F06FEF690FE62FF0E004
:100B9000E151FD4F9489890F80680C94110541E063
:100BA0000E94BE0481E090E00895FB0101900020C6
:100BB000E9F73197AF01461B570BDC01ED91FC9132
:100BC0000280F381E02D09940C94D505CF9318167B
:100BD0001906BCF483EE92E00E943204C82F61E350
:100BE00071E086E492E00E94E4056C2F86E492E0D6
:100BF0000E94700364E471E086E492E0CF910C946B
:100C0000D505CF910895CF93DF9385ED8093BC00F8
:100C10008091AC019091AD01A091AE01B091AF0176
:100C20000796A11DB11D23E0B695A79597958795C9
:100C30002A95D1F72091BC0024FD03C01092F40145
:100C400036C04091AC015091AD016091AE01709100
:100C5000AF01452B462B472B69F30097A105B10542
:100C600041F02AE22A95F1F700C00197A109B109E4
:100C7000E1CF8091AB0191E09093AA018823B9F074
:100C8000C091B800D091BA008091BC008A7B80935B
:100C9000BC0060E082E10E94B60060E083E10E9457
:100CA000B6000E940404D093BA00C093B800DF914C
:100CB000CF9108951F920F920FB60F9211242F9388
:100CC0003F938F939F93AF93BF9380912D02909109
:100CD0002E02A0912F02B091300230912C0223E01D
:100CE000230F2D3758F50196A11DB11D20932C021D
:100CF00080932D0290932E02A0932F02B093300286
:100D00008091310290913202A0913302B09134026D
:100D10000196A11DB11D8093310290933202A093E0
:100D20003302B0933402BF91AF919F918F913F9165
:100D30002F910F900FBE0F901F90189526E8230F4C
:100D40000296A11DB11DD2CF1F920F920FB60F9226
:100D500011242F933F934F935F936F937F938F93C0
:100D60009F93AF93BF93EF93FF9380913A0290913B
:100D70003B02A0913C02B0913D02892B8A2B8B2B28
:100D8000D1F190913502E0913602F09137028081E5
:100D90008927808380913A0290913B02A0913C0286
:100DA000B0913D02181619061A061B069CF4809194
:100DB0003A0290913B02A0913C02B0913D02019712
:100DC000A109B10980933A0290933B02A0933C029F
:100DD000B0933D02FF91EF91BF91AF919F918F91A1
:100DE0007F916F915F914F913F912F910F900FBE27
:100DF0000F901F90189580910001E2ECF0E0E491D3
:100E00009FEF90930001E13051F030F0E23069F053
:100E100060E00E94B600DECF10926E00F9CF909194
:100E20006F009D7F90936F00F3CF909170009D7F36
:100E30009093700091E09093B0009091B100987FF2
:100E400094609093B1001092B300E2CF1F920F9282
:100E50000FB60F9211242F933F934F935F936F938D
:100E60007F938F939F93AF93BF93EF93FF9386E40A
:100E700092E00E944E03FF91EF91BF91AF919F913D
:100E80008F917F916F915F914F913F912F910F9033
:100E90000FBE0F901F9018951F920F920FB60F92D2
:100EA00011242F938F939F93EF93FF93E09156021A
:100EB000F09157028081E0915C02F0915D0282FD29
:100EC0001BC0908180915F028F5F8F7320916002C1
:100ED000821741F0E0915F02F0E0EA5BFD4F958FF1
:100EE00080935F02FF91EF919F918F912F910F90CF
:100EF0000FBE0F901F9018958081F4CF1F920F9214
:100F00000FB60F9211242F933F934F935F936F93DC
:100F10007F938F939F93AF93BF93EF93FF938091B2
:100F2000B900887F803609F44AC0F0F5883209F4A8
:100F3000A7C018F5803109F49BC0B8F4882309F4E0
:100F4000F9C0883009F494C0FF91EF91BF91AF913F
:100F50009F918F917F916F915F914F913F912F91D1
:100F60000F900FBE0F901F901895883109F488C01C
:100F7000803251F78093F30114C0803409F49DC08E
:100F800040F48033B9F38833F9F68093F30185ECAC
:100F9000B0C0803509F485C0883509F496C088341E
:100FA00099F60E940306D0CF883909F48CC038F531
:100FB000883729F050F4883611F0803729F683E01D
:100FC0008093F4011092F20157C0883809F47BC075
:100FD000803919F0803809F0B7CF8091F201803262
:100FE00008F071C0E091F20181E08E0F8093F20170
:100FF0008091BB00F0E0EE52FE4F80833DC0803B0D
:1010000039F0E0F4803A09F479C0883A09F09CCFCD
:1010100084E08093F4011092D1011092D001E0910C
:101020001C02F0911D0209958091D00181110FC021
:1010300081E08093D0011092B00109C0803C09F496
:10104000A6CF883C09F4A3CF883B09F07DCFE0917F
:10105000D10181E08E0F8093D101F0E0E055FE4F89
:1010600080818093BB009091D1018091D00129C0F3
:10107000809119028093BB0085EC8093BC0064CF03
:101080009091180280911702981758F5E091180274
:1010900081E08E0F80931802F0E0E950FE4F8081CE
:1010A000E9CFE091180281E08E0F809318028091C1
:1010B000BB00F0E0E950FE4F8083909118028091D0
:1010C00017029817C8F285E8D8CFE091180281E09E
:1010D0008E0F809318028091BB00F0E0E950FE4F24
:1010E00080838091F60181115CCF81E08093F501CE
:1010F00084EA8093BC001092F40126CF85EC8093A3
:10110000BC001092F4018091F201803230F4E09141
:10111000F201F0E0EE52FE4F10826091F20170E0B9
:10112000E0911A02F0911B0282ED91E00995109274
:10113000F2010ACF1092F30134CFE6E4F2E0138219
:10114000128288EE93E0A0E0B0E084839583A683CA
:10115000B78325E031E03183208325EC30E035870B
:10116000248724EC30E03787268720EC30E0318B71
:10117000208B21EC30E0338B228B22EC30E0358B5E
:10118000248B26EC30E0378B268B118E128E138E3B
:10119000148EE3EEF2E01382128284839583A68399
:1011A000B78387E191E091838083EFEEF2E01382D1
:1011B000128289E291E0918380838CE084838FEFB7
:1011C00085838BE0868385E0878384E0808783E066
:1011D000818782E082871386148615861686178695
:1011E00081E00C941F05CF93DF93CDB7DEB7A197B5
:1011F0000FB6F894DEBF0FBECDBF789484B5826081
:1012000084BD84B5816084BD85B5826085BD85B5AA
:10121000816085BD80916E00816080936E00109228
:1012200081008091810082608093810080918100A3
:101230008160809381008091800081608093800034
:101240008091B10084608093B1008091B000816092
:101250008093B00080917A00846080937A008091BE
:101260007A00826080937A0080917A008160809316
:101270007A0080917A00806880937A001092C10091
:1012800082E00E941F050E94170561E08DE00E9428
:10129000E40060E087E00E94E40061E089E00E94F1
:1012A000E400109221021092200210921F0210926C
:1012B0001E020E9404048AE992E090931D0280932A
:1012C0001C0286EA92E090931B0280931A0280E14E
:1012D0008093BA008CE694E09093230280932202DC
:1012E00086EE95E09093250280932402E0915602C9
:1012F000F091570282E08083E0915202F091530214
:101300001082E0915402F09155028FEC808310928C
:101310005E02E0915A02F0915B0286E08083E091E8
:101320005802F0915902808180618083E0915802D7
:10133000F0915902808188608083E0915802F09199
:101340005902808180688083E0915802F0915902AF
:1013500080818F7D808360E080E00E94C00567E42B
:1013600071E08FEE92E00E94E40561E080E00E946F
:10137000C00562E571E08FEE92E00E94E40560ED49
:1013800077E080E090E00E9468029AE0E92EF12C7C
:101390002AE0822E912CA12CB12C35EB632E30E06B
:1013A000732E40E0C42E40E0D42E0E94170581E148
:1013B0000E9431028C0190932B0280932A028EE0CE
:1013C0000E9431029093290280932802B801110FE4
:1013D000880B990B0E945A0B20E030E040E85AE35A
:1013E0000E94BE0B20E030E44CE955E40E94BE0BA5
:1013F0000E94220BCB01B7010E94530C709327026D
:101400006093260260E080E00E94C0056DE571E017
:101410008FEE92E00E94E40560E085E00E94C00546
:101420002090260230902702032C000C4408550817
:1014300057FE76C041E06DE28FEE92E00E94BE045E
:1014400022273327A901221933094409550919A272
:101450008E010F5D1F4FCA01B901A50194010E94C1
:10146000670C605DF80162938F012115310541051C
:10147000510589F70115110529F0B8018FEE92E0A9
:101480000E94D50560E087E00E94C00563E671E038
:101490008FEE92E00E94E40580912802909129024B
:1014A0008D3BF2E09F070CF4A3C060E08BE00E944C
:1014B000C00566E671E08FEE92E00E94E40561E00F
:1014C0008BE00E94C0056AE671E08FEE92E00E9418
:1014D000E405E3E8F0E08491E7E9F0E01491F3013A
:1014E0000491002399F181110E948D00E02FF0E01A
:1014F000EE0FFF1FE859FF4FA591B4918C9118236F
:1015000029F161E08DE00E94B60061E080E00E9478
:10151000C0056FE671E08FEE92E00E94E40556C0D0
:10152000A201910119A28E010F5D1F4FCA01B901DD
:10153000A50194010E94670C605DF80162938F0120
:10154000211531054105510589F794CF60E08DE003
:101550000E94B60061E080E00E94C00567E771E08C
:101560008FEE92E00E94E40586E091E00E94150172
:1015700064EF71E080E090E00E94680286E291E012
:101580000E94150164EF71E080E090E00E94680223
:101590008AE491E00E94150164EF71E080E090E040
:1015A0000E9468028DE591E00E94150164EF71E0F0
:1015B00080E090E00E94680288E891E00E941501B6
:1015C00064EF71E080E090E00E94680268EE73E0F2
:1015D00080E090E00E946802C114D10409F4E5CED5
:1015E0000E943A03882309F4E0CE0E940000DDCE79
:1015F0008C52914060E081399140F0F48BE00E9480
:10160000C00560E871E08FEE92E00E94E40561E0C1
:101610008BE00E94C0056AE671E08FEE92E00E94C6
:10162000E40560E08DE00E94B60061E080E00E9489
:10163000C00567E771E06FCF8BE00E94C00566E8E8
:1016400071E0E1CF0E94290B6894B1110C94B80BA2
:1016500008950E949D0B88F09F5798F0B92F992705
:10166000B751B0F0E1F0660F771F881F991F1AF08D
:10167000BA95C9F714C0B13091F00E94B70BB1E030
:1016800008950C94B70B672F782F8827B85F39F02F
:10169000B93FCCF3869577956795B395D9F73EF426
:1016A00090958095709561957F4F8F4F9F4F0895CE
:1016B000E89409C097FB3EF49095809570956195EC
:1016C0007F4F8F4F9F4F9923A9F0F92F96E9BB27A2
:1016D0009395F695879577956795B795F111F8CF1E
:1016E000FAF4BB0F11F460FF1BC06F5F7F4F8F4F89
:1016F0009F4F16C0882311F096E911C0772321F07F
:101700009EE8872F762F05C0662371F096E8862F16
:1017100070E060E02AF09A95660F771F881FDAF76D
:10172000880F9695879597F9089557FD9058440F1F
:10173000551F59F05F3F71F04795880F97FB991F30
:1017400061F09F3F79F087950895121613061406ED
:10175000551FF2CF4695F1DF08C01616170618067A
:10176000991FF1CF86957105610508940895E89455
:10177000BB2766277727CB0197F908950E94D10BE5
:101780000C94420C0E94340C38F00E943B0C20F068
:10179000952311F00C942B0C0C94310C11240C9407
:1017A000B80B0E94950B70F3959FC1F3950F50E015
:1017B000551F629FF001729FBB27F00DB11D639F03
:1017C000AA27F00DB11DAA1F649F6627B00DA11DA9
:1017D000661F829F2227B00DA11D621F739FB00D4F
:1017E000A11D621F839FA00D611D221F749F3327BF
:1017F000A00D611D231F849F600D211D822F762F58
:101800006A2F11249F5750409AF0F1F088234AF034
:10181000EE0FFF1FBB1F661F771F881F91505040A0
:10182000A9F79E3F510580F00C942B0C0C94B80B3B
:101830005F3FE4F3983ED4F3869577956795B79527
:10184000F795E7959F5FC1F7FE2B880F911D969541
:10185000879597F9089597F99F6780E870E060E0B1
:1018600008959FEF80EC089500240A941616170639
:1018700018060906089500240A9412161306140681
:1018800005060895092E0394000C11F4882352F0E4
:10189000BB0F40F4BF2B11F460FF04C06F5F7F4F9C
:1018A0008F4F9F4F089597FB072E16F4009407D093
:1018B00077FD09D00E94B70C07FC05D03EF4909547
:1018C00081959F4F0895709561957F4F0895A1E28E
:1018D0001A2EAA1BBB1BFD010DC0AA1FBB1FEE1FAA
:1018E000FF1FA217B307E407F50720F0A21BB30BF5
:1018F000E40BF50B661F771F881F991F1A9469F771
:1019000060957095809590959B01AC01BD01CF01CC
:101910000895052E97FB1EF400940E94A00C57FD1D
:1019200007D00E94670C07FC03D04EF40C94A00C67
:1019300050954095309521953F4F4F4F5F4F0895FB
:1019400090958095709561957F4F8F4F9F4F08952B
:10195000A29FB001B39FC001A39F700D811D1124F0
:10196000911DB29F700D811D1124911D0895AA1B18
:10197000BB1B51E107C0AA1FBB1FA617B70710F07A
:10198000A61BB70B881F991F5A95A9F780959095AC
:10199000BC01CD010895EE0FFF1F0590F491E02DDD
:0619A0000994F894FFCF4A
:1019A600FF000000007003D002FD02BD032E030CF1
:1019B6000320030000000057044C04690422044578
:1019C600043204230400000000CF05D00269046835
:1019D60004526563656976656420436F6D6D616E5B
:1019E600643A20000D0A0050524F4A4543542042A3
:1019F6005900534D4152544B454D424F0054454DAD
:101A0600503A002A430044525900534F494C005063
:101A1600554D503A4F4E0050554D503A4F464600A0
:0A1A26004D4F49535400574554003A
:00000001FF
