:100000000C9458000C9480000C9480000C94800098
:100010000C9480000C9480000C9480000C94800060
:100020000C9480000C9480000C9480000C94800050
:100030000C9480000C9480000C9480000C94800040
:100040000C9418040C9480000C9488040C946204A2
:100050000C9480000C9480000C9480000C94800020
:100060000C94BA040C9480000000000025002800C5
:100070002B00040404040404040402020202020229
:10008000030303030303010204081020408001025C
:1000900004081020010204081020000000080002DB
:1000A0000100000304070000000000000000D90563
:1000B00011241FBECFEFD8E0DEBFCDBF11E0A0E01E
:1000C000B1E0ECE7F0E102C005900D92A234B10777
:1000D000D9F722E0A2E4B1E001C01D92A23BB20731
:1000E000E1F710E0C8E5D0E004C02197FE010E94CE
:1000F0003608C735D107C9F70E9412060C943C0890
:100100000C94000090E0FC01E656FF4F2491FC01A6
:10011000EA57FF4F3491FC01EE58FF4FE491EE2374
:10012000C9F0222339F0233001F1A8F4213019F16C
:10013000223029F1F0E0EE0FFF1FE859FF4FA591A3
:10014000B4918FB7F894EC91611126C030953E239D
:100150003C938FBF08952730A9F02830C9F0243090
:1001600049F7809180008F7D03C0809180008F7758
:1001700080938000DFCF84B58F7784BDDBCF84B5DB
:100180008F7DFBCF8091B0008F778093B000D2CF6E
:100190008091B0008F7DF9CF3E2BDACF3FB7F89436
:1001A0008091B5019091B601A091B701B091B801CD
:1001B00026B5A89B05C02F3F19F00196A11DB11DC2
:1001C0003FBFBA2FA92F982F8827BC01CD01620FFE
:1001D000711D811D911D42E0660F771F881F991FB9
:1001E0004A95D1F7089580918A0190918B01891BDE
:1001F000990B089508950895AF92BF92CF92DF9220
:10020000EF92FF920F931F93CF93DF936C017B01CB
:100210008B01040F151FEB015E01AE18BF08C0175C
:10022000D10759F06991D601ED91FC910190F081CF
:10023000E02DC6010995892B79F7C501DF91CF9192
:100240001F910F91FF90EF90DF90CF90BF90AF90F4
:100250000895FC01538D448D252F30E0842F90E0CC
:10026000821B930B541710F0CF96089501970895B1
:10027000FC01918D828D981761F0A28DAE0FBF2F7A
:10028000B11D5D968C91928D9F5F9F73928F90E0D0
:1002900008958FEF9FEF0895FC01918D828D98173F
:1002A00031F0828DE80FF11D858D90E008958FEF7C
:1002B0009FEF0895FC01918D228D892F90E0805C45
:1002C0009F4F821B91098F739927089589E092E0CF
:1002D0000E945A0121E0892B09F420E0822F089521
:1002E00080E090E0892B29F00E94660181110C9436
:1002F00000000895FC01A48DA80FB92FB11DA35AC9
:10030000BF4F2C91848D90E001968F739927848F35
:10031000A689B7892C93A089B1898C918370806458
:100320008C93938D848D981306C00288F389E02DF9
:1003300080818F7D80830895EF92FF920F931F93AA
:10034000CF93DF93EC0181E0888F9B8D8C8D981388
:100350001AC0E889F989808185FF15C09FB7F89494
:10036000EE89FF896083E889F989808183708064E0
:1003700080839FBF81E090E0DF91CF911F910F912B
:10038000FF90EF900895F62E0B8D10E00F5F1F4F3A
:100390000F731127E02E8C8D8E110CC00FB607FC49
:1003A000FACFE889F989808185FFF5CFCE010E94D7
:1003B0007A01F1CFEB8DEC0FFD2FF11DE35AFF4FCA
:1003C000F0829FB7F8940B8FEA89FB898081806265
:1003D000CFCFCF93DF93EC01888D8823B9F0AA8922
:1003E000BB89E889F9898C9185FD03C0808186FDF0
:1003F0000DC00FB607FCF7CF8C9185FFF2CF80813F
:1004000085FFEDCFCE010E947A01E9CFDF91CF9138
:10041000089520916301260F3327331F21323105C0
:10042000ECF42091DF01FC0190E080E0243069F0E1
:1004300082E00895A09163012191AC014D5B5E4F74
:10044000A40FB52FB11D2C930196861798F38091B8
:100450006301680F6093630180E0089581E008956F
:100460001092DF0181E08093DE011092B90161E01A
:1004700082E10E94820061E083E10E948200E9EB58
:10048000F0E080818E7F808380818D7F808388E40F
:100490008093B80085E48093BC000895CF93DF93E8
:1004A00091E0909342018823B9F0C091B800D091B7
:1004B000BA008091BC008A7B8093BC0060E082E13E
:1004C0000E94820060E083E10E9482000E9430026C
:1004D000D093BA00C093B800DF91CF9108950895EA
:1004E000E0918B0180918A01E81730F4F0E0E45745
:1004F000FE4F808190E008958FEF9FEF08959091D7
:100500008B0180918A012FEF3FEF981748F4E92F74
:10051000F0E0E457FE4F208130E09F5F90938B0125
:10052000C9010895CF92DF92EF92FF920F931F932C
:10053000CF93DF937C01CB018A0120910802222313
:1005400089F0EB016B01C40ED51ECC15DD0569F0F9
:100550006991D701ED91FC910190F081E02DC701E7
:100560000995F3CF642F0E940902C801DF91CF9152
:100570001F910F91FF90EF90DF90CF900895CF9350
:10058000DF931F92CDB7DEB7698320910802222343
:10059000F9F020910502203258F021E030E0FC0112
:1005A0003383228390E080E00F90DF91CF91089514
:1005B00080910602E82FF0E0EB51FE4F9981908385
:1005C0008F5F809306028093050281E090E0ECCF7C
:1005D00061E0CE0101960E940902F7CFCF92DF922F
:1005E000EF92FF920F931F93CF9391E090930802A5
:1005F00098E0909307021092060210920502682F6D
:1006000086EA92E00E94BF02C0910502C13208F062
:1006100091C00E94CE006B017C018091DF018111AD
:1006200064C082E08093DF0181E08093DE018FEF80
:100630008093DD011092DC01C093DB01A5EEB1E0F7
:10064000EBEBF1E080E0C81383C01092BA01809117
:10065000BA0180618093BA018091B901813009F0BB
:100660007BC01092B9010E94CE006B017C01809189
:10067000BA018093BB008091E1019091E201A091C9
:10068000E301B091E401892B8A2B8B2B99F00E9416
:10069000CE000091E1011091E2012091E30130913F
:1006A000E4016C197D098E099F09061717072807B1
:1006B0003907E0F18091BC0083FDD9CF85EC8093B0
:1006C000BC000E94CE006B017C018091DF01823072
:1006D00009F444C08091DD018F3F61F18091DD011B
:1006E000803241F18091DD0125C08091E10190913E
:1006F000E201A091E301B091E401892B8A2B8B2BBD
:1007000009F48BCF0E94CE000091E1011091E2012B
:100710002091E3013091E4016C197D098E099F0954
:10072000061717072807390708F077CF8091E001EF
:100730000E944E02109206021092050210920802C8
:10074000CF911F910F91FF90EF90DF90CF90089580
:100750009D9191938F5F77CF85EEB1CF8091E1012D
:100760009091E201A091E301B091E401892B8A2BE1
:100770008B2B09F4AACF0E94CE000091E1011091C9
:10078000E2012091E3013091E4016C197D098E09A9
:100790009F09061717072807390708F096CFC6CF15
:1007A00090E080E00895FC0101900020E9F7319786
:1007B000AF01481B590BBC0189E092E00C94FC008E
:1007C00085ED8093BC008091E1019091E201A091C0
:1007D000E301B091E4010796A11DB11D23E0B69598
:1007E000A795979587952A95D1F72091BC0024FD70
:1007F00003C01092DF0108954091E1015091E201A0
:100800006091E3017091E401452B462B472B69F37E
:100810000097A105B10541F02AE22A95F1F700C041
:100820000197A109B109E1CF8091E0010C944E023A
:100830001F920F920FB60F9211242F933F938F9315
:100840009F93AF93BF938091B1019091B201A0911A
:10085000B301B091B4013091B00123E0230F2D37E3
:1008600058F50196A11DB11D2093B0018093B101EF
:100870009093B201A093B301B093B4018091B501FC
:100880009091B601A091B701B091B8010196A11D58
:10089000B11D8093B5019093B601A093B701B093B9
:1008A000B801BF91AF919F918F913F912F910F9080
:1008B0000FBE0F901F90189526E8230F0296A11DDA
:1008C000B11DD2CF1F920F920FB60F9211242F930A
:1008D0003F934F935F936F937F938F939F93AF93C8
:1008E000BF93EF93FF9389E092E00E947A01FF911A
:1008F000EF91BF91AF919F918F917F916F915F9198
:100900004F913F912F910F900FBE0F901F90189510
:100910001F920F920FB60F9211242F938F939F93D4
:10092000EF93FF93E0911902F0911A028081E09118
:100930001F02F091200282FD1BC090818091220253
:100940008F5F8F7320912302821741F0E091220282
:10095000F0E0E75FFD4F958F80932202FF91EF91CA
:100960009F918F912F910F900FBE0F901F90189510
:100970008081F4CF1F920F920FB60F9211242F9304
:100980003F934F935F936F937F938F939F93AF9317
:10099000BF93EF93FF938091B900887F803609F46D
:1009A0004AC0F0F5883209F4A7C018F5803109F47F
:1009B0009BC0B8F4882309F4F9C0883009F494C0C6
:1009C000FF91EF91BF91AF919F918F917F916F9127
:1009D0005F914F913F912F910F900FBE0F901F90FD
:1009E0001895883109F488C0803251F78093DD0171
:1009F00014C0803409F49DC040F48033B9F38833C7
:100A0000F9F68093DD0185ECB0C0803509F485C02E
:100A1000883509F496C0883499F60E94E003D0CF57
:100A2000883909F48CC038F5883729F050F48836B5
:100A300011F0803729F683E08093DF011092850161
:100A400057C0883809F47BC0803919F0803809F024
:100A5000B7CF80918501803208F071C0E0918501A7
:100A600081E08E0F809385018091BB00F0E0EB590F
:100A7000FE4F80833DC0803B39F0E0F4803A09F4BA
:100A800079C0883A09F09CCF84E08093DF0110920E
:100A9000640110926301E0918801F0918901099548
:100AA0008091630181110FC081E0809363011092F6
:100AB000430109C0803C09F4A6CF883C09F4A3CFC8
:100AC000883B09F07DCFE091640181E08E0F809337
:100AD0006401F0E0ED5BFE4F80818093BB0090915C
:100AE00064018091630129C08091BA018093BB00A9
:100AF00085EC8093BC0064CF9091DC018091DB0198
:100B0000981758F5E091DC0181E08E0F8093DC01AD
:100B1000F0E0E554FE4F8081E9CFE091DC0181E017
:100B20008E0F8093DC018091BB00F0E0E554FE4F16
:100B300080839091DC018091DB019817C8F285E8F1
:100B4000D8CFE091DC0181E08E0F8093DC018091B1
:100B5000BB00F0E0E554FE4F80838091DE018111FF
:100B60005CCF81E08093B90184EA8093BC0010924D
:100B7000DF0126CF85EC8093BC001092DF018091CD
:100B80008501803230F4E0918501F0E0EB59FE4FB1
:100B900010826091850170E0E0918601F0918701FB
:100BA00085E691E00995109285010ACF1092DD014A
:100BB00034CFE9E0F2E01382128288EE93E0A0E005
:100BC000B0E084839583A683B78324E031E031834A
:100BD000208325EC30E03587248724EC30E037870C
:100BE000268720EC30E0318B208B21EC30E0338BFA
:100BF000228B22EC30E0358B248B26EC30E0378BD7
:100C0000268B118E128E138E148EE6EAF2E013827A
:100C1000128284839583A683B78386E191E09183D2
:100C200080830895CF93DF93CDB7DEB7A3970FB638
:100C3000F894DEBF0FBECDBF789484B5826084BDCA
:100C400084B5816084BD85B5826085BD85B58160D0
:100C500085BD80916E00816080936E00109281004E
:100C60008091810082608093810080918100816009
:100C700080938100809180008160809380008091CA
:100C8000B10084608093B1008091B0008160809356
:100C9000B00080917A00846080937A0080917A001D
:100CA000826080937A0080917A00816080937A00DC
:100CB00080917A00806880937A001092C10010922F
:100CC0008B0110928A0110920602109205020E9476
:100CD00030028AEF90E090938901809388018BEF36
:100CE00090E09093870180938601E0911902F09142
:100CF0001A0282E08083E0911502F09116021082C0
:100D0000E0911702F09118028FEC8083109221027B
:100D1000E0911D02F0911E0286E08083E0911B02AB
:100D2000F0911C02808180618083E0911B02F09130
:100D30001C02808188608083E0911B02F0911C027C
:100D4000808180688083E0911B02F0911C02808189
:100D50008F7D80839AE0492E512C612C712C25EED9
:100D6000222E11E033243A9480E0882E80E0982EE1
:100D700005EC2FB7F8948091B1019091B201A09148
:100D8000B301B091B4012FBF4091AC015091AD01BE
:100D90006091AE017091AF016C017D01C41AD50A5A
:100DA000E60AF70AB701A601413D57406105710502
:100DB00008F4F1C08093AC019093AD01A093AE0113
:100DC000B093AF010E94CE006B017C018091DF01E6
:100DD000811161C01093DF011093DE013092DD01BB
:100DE0001092DC011093DB011093BA018091BA01DB
:100DF00080618093BA018091B901813009F0D7C038
:100E00001092B9010E94CE006B017C018091BA0161
:100E10008093BB008091E1019091E201A091E301F8
:100E2000B091E401892B8A2B8B2BA1F00E94CE007C
:100E30002091E1013091E2014091E3015091E40100
:100E40006C197D098E099F0926173707480759072E
:100E500008F442C08091BC0083FDD8CF0093BC0051
:100E60000E94CE006B017C018091DF01813009F48A
:100E7000A1C08091DC01823008F0BEC08091DC010D
:100E8000ABEBB1E0ECE8F1E090E0981751F12D9177
:100E900021939F5FFACF8091E1019091E201A091AF
:100EA000E301B091E401892B8A2B8B2B09F48ECFBF
:100EB0000E94CE002091E1013091E2014091E301D6
:100EC0005091E4016C197D098E099F092617370797
:100ED0004807590708F07ACF8091E0010E944E023E
:100EE00080E010928B0180938A01F12CE12C8230FA
:100EF00078F086EA92E00E947F02F82E86EA92E07D
:100F00000E947F02FBA21AA2EAA0FBA0E82AF92A0B
:100F100084E291E00E94D30357010F2C000CCC080F
:100F2000DD08D7FE6BC06DE289E092E00E949C0173
:100F300022273327A9012A193B094C095D0919A267
:100F4000CE0181966C01CA01B901A30192010E94F0
:100F50001408605DF60162936F01211531054105AA
:100F6000510589F7C114D10419F0C6010E94D303B9
:100F70008EE391E00E94D30383E5F1E2EF16F3E004
:100F8000FF063CF487E524EFE21621E0F2060CF0C0
:100F90008EE40E94EE028114910409F4EACE0E94CC
:100FA0006601882309F4E4CE0E940000DDCE209281
:100FB000BC0056CF8091E1019091E201A091E30144
:100FC000B091E401892B8A2B8B2B09F44DCF0E9421
:100FD000CE002091E1013091E2014091E301509176
:100FE000E4016C197D098E099F0926173707480708
:100FF000590708F039CF70CF82E042CFA6019501A2
:1010000019A2CE0181966C01CA01B901A301920116
:101010000E941408605DF60162936F01211531058D
:101020004105510589F79ECFA1E21A2EAA1BBB1BD1
:10103000FD010DC0AA1FBB1FEE1FFF1FA217B307A4
:10104000E407F50720F0A21BB30BE40BF50B661FBA
:10105000771F881F991F1A9469F76095709580957E
:1010600090959B01AC01BD01CF010895EE0FFF1FCC
:0C1070000590F491E02D0994F894FFCF56
:10107C00000000009C01FC002901E9015A01380123
:10108C004C0100000000BF029202D0036F02F3007B
:10109C007F02700245646765204E6F646520536F54
:1010AC00696C204D6F6973747572653A20000D0A76
:0210BC00000032
:00000001FF
