:020000040000FA
:100000000C945D000C9485000C9485000C94850084
:100010000C9485000C9485000C9485000C9485004C
:100020000C9485000C9485000C9485000C946B0551
:100030000C9485000C9485000C9485000C9485002C
:100040000C94AA030C9485000C941A040C94F403E9
:100050000C9485000C9485000C9485000C9485000C
:100060000C944C040C948500000000080002010070
:100070000003040700000000000000000000000072
:10008000250028002B0000000000240027002A0083
:10009000040404040404040402020202020203032E
:1000A0000303030301020408102040800102040836
:1000B0001020010204081020270611241FBECFEFD4
:1000C000D8E0DEBFCDBF11E0A0E0B1E0E0E2F2E1B8
:1000D00002C005900D92A035B107D9F722E0A0E546
:1000E000B1E001C01D92A93CB207E1F710E0CDE5F7
:1000F000D0E004C02197FE010E940809CC35D10749
:10010000C9F70E9496060C940E090C94000090E02A
:10011000FC01EC55FF4F249180579F4FFC018491C7
:10012000882399F090E0880F991FFC01EA57FF4F50
:10013000A591B491FC01E458FF4F859194918FB73C
:10014000F894EC91E22BEC938FBF0895E091C602F6
:10015000EC3088F54091C70228E830E0241B3109D3
:1001600047FD3395220F331F220F331F821793074A
:1001700084F04091C80228E532E0241B310947FD94
:100180003395220F331F220F331F821793070CF46E
:100190009C0122503109220F331F4FB7F8948E2F44
:1001A00090E0FC01EE0FFF1FE80FF91FEF55FD4F28
:1001B000328321834FBF089590E0FC01E859FF4F3F
:1001C0002491FC01EC55FF4F3491FC01E057FF4FA7
:1001D000E491EE23C9F0222339F0233001F1A8F491
:1001E000213019F1223029F1F0E0EE0FFF1FE45821
:1001F000FF4FA591B4918FB7F894EC91611126C08F
:1002000030953E233C938FBF08952730A9F02830C6
:10021000C9F0243049F7809180008F7D03C0809120
:1002200080008F7780938000DFCF84B58F7784BD87
:10023000DBCF84B58F7DFBCF8091B0008F7780932B
:10024000B000D2CF8091B0008F7DF9CF3E2BDACFB6
:100250003FB7F8948091F4019091F501A091F601D7
:10026000B091F70126B5A89B05C02F3F19F0019664
:10027000A11DB11D3FBFBA2FA92F982F8827BC0100
:10028000CD01620F711D811D911D42E0660F771F28
:10029000881F991F4A95D1F70895E091E901F091DF
:1002A000EA01309729F01092E6011092E5010994D5
:1002B0000895CF93DF93AC01E091EB01F091EC0155
:1002C0003097F1F09091E8018091E7019817C0F024
:1002D00090E0292F30E02617370754F4D901AF5AA0
:1002E000BE4F240F351FE90128812C939F5FF1CF6A
:1002F0001092E8016093E701CB01DF91CF9109945F
:10030000DF91CF910895AF92BF92CF92DF92EF929B
:10031000FF920F931F93CF93DF936C017B018B01AF
:10032000040F151FEB015E01AE18BF08C017D107FF
:1003300059F06991D601ED91FC910190F081E02D89
:10034000C6010995892B79F7C501DF91CF911F91DE
:100350000F91FF90EF90DF90CF90BF90AF900895F6
:10036000FC01538D448D252F30E0842F90E0821BBB
:10037000930B541710F0CF96089501970895FC0140
:10038000918D828D981761F0A28DAE0FBF2FB11D98
:100390005D968C91928D9F5F9F73928F90E00895F0
:1003A0008FEF9FEF0895FC01918D828D981731F0AA
:1003B000828DE80FF11D858D90E008958FEF9FEFFE
:1003C0000895FC01918D228D892F90E0805C9F4FD4
:1003D000821B91098F739927089588EF91E00E94FD
:1003E000E10121E0892B09F420E0822F089580E0CB
:1003F00090E0892B29F00E94ED0181110C940000FE
:100400000895FC01A48DA80FB92FB11DA35ABF4FA9
:100410002C91848D90E001968F739927848FA68903
:10042000B7892C93A089B1898C91837080648C9357
:10043000938D848D981306C00288F389E02D808106
:100440008F7D80830895EF92FF920F931F93CF9338
:10045000DF93EC0181E0888F9B8D8C8D98131AC0FF
:10046000E889F989808185FF15C09FB7F894EE89E6
:10047000FF896083E889F989808183708064808343
:100480009FBF81E090E0DF91CF911F910F91FF908E
:10049000EF900895F62E0B8D10E00F5F1F4F0F7336
:1004A0001127E02E8C8D8E110CC00FB607FCFACFF1
:1004B000E889F989808185FFF5CFCE010E9401028C
:1004C000F1CFEB8DEC0FFD2FF11DE35AFF4FF082C2
:1004D0009FB7F8940B8FEA89FB8980818062CFCF28
:1004E000CF93DF93EC01888D8823B9F0AA89BB896B
:1004F000E889F9898C9185FD03C0808186FD0DC056
:100500000FB607FCF7CF8C9185FFF2CF808185FF76
:10051000EDCFCE010E940102E9CFDF91CF91089586
:1005200020919701260F3327331F21323105ECF438
:100530002091BB01FC0190E080E0243069F082E072
:100540000895A09197012191AC0149585E4FA40FE5
:10055000B52FB11D2C930196861798F380919701C2
:10056000680F6093970180E0089581E008951092EC
:10057000BB0181E08093BD011092BC0161E082E18A
:100580000E94DC0061E083E10E94DC00E9EBF0E026
:1005900080818E7F808380818D7F808388E48093BB
:1005A000B80085E48093BC0008950895E091E801C7
:1005B0008091E701E81730F4F0E0EF5AFE4F8081B8
:1005C00090E008958FEF9FEF08959091E80180915A
:1005D000E7012FEF3FEF981748F4E92FF0E0EF5ACB
:1005E000FE4F208130E09F5F9093E801C90108959C
:1005F0008091E7019091E801891B990B0895CF93B1
:10060000DF93CB01EA01642F0E949002CE01DF91BB
:10061000CF910895CF93DF931F92CDB7DEB7698353
:1006200061E0CE0101960E94900281E090E00F907F
:10063000DF91CF91089590E080E00895CF93C0912D
:10064000ED016091EE0185E992E00E940A036C2FB2
:1006500085E992E0CF910C940A03FC0101900020FF
:10066000E9F73197AF01481B590BBC0188EF91E0C6
:100670000C948301CF93181619069CF485E992E037
:100680000E94E502C82F84E291E00E942D036C2FA6
:1006900088EF91E00E94230287E391E0CF910C94D0
:1006A0002D03CF910895CF93DF9385ED8093BC0008
:1006B0008091730190917401A0917501B0917601C0
:1006C0000796A11DB11D23E0B695A795979587952F
:1006D0002A95D1F72091BC0024FD03C01092BB01E4
:1006E00036C0409173015091740160917501709111
:1006F0007601452B462B472B69F30097A105B105E1
:1007000041F02AE22A95F1F700C00197A109B10949
:10071000E1CF8091720191E0909371018823B9F04B
:10072000C091B800D091BA008091BC008A7B8093C0
:10073000BC0060E082E10E94DC0060E083E10E9496
:10074000DC000E94B702D093BA00C093B800DF91DA
:10075000CF9108951F920F920FB60F9211242F93ED
:100760003F938F939F93AF93BF938091F0019091AC
:10077000F101A091F201B091F3013091EF0123E07A
:10078000230F2D3758F50196A11DB11D2093EF01C0
:100790008093F0019093F101A093F201B093F301E3
:1007A0008091F4019091F501A091F601B091F701CB
:1007B0000196A11DB11D8093F4019093F501A093C2
:1007C000F601B093F701BF91AF919F918F913F9147
:1007D0002F910F900FBE0F901F90189526E8230FB2
:1007E0000296A11DB11DD2CF1F920F920FB60F928C
:1007F00011242F933F934F935F936F937F938F9326
:100800009F93AF93BF93EF93FF9388EF91E00E9484
:100810000102FF91EF91BF91AF919F918F917F91D5
:100820006F915F914F913F912F910F900FBE0F905D
:100830001F9018951F920F920FB60F9211242F93AD
:100840008F939F93EF93FF93E0910802F091090239
:100850008081E0910E02F0910F0282FD1BC0908119
:10086000809111028F5F8F7320911202821741F0E5
:10087000E0911102F0E0E850FE4F958F8093110255
:10088000FF91EF919F918F912F910F900FBE0F903D
:100890001F9018958081F4CF1F920F920FB60F9280
:1008A00011242F933F934F935F936F937F938F9375
:1008B0009F93AF93BF93EF93FF938091B900887F8D
:1008C000803609F44AC0F0F5883209F4A7C018F55B
:1008D000803109F49BC0B8F4882309F4F9C088304A
:1008E00009F494C0FF91EF91BF91AF919F918F91C7
:1008F0007F916F915F914F913F912F910F900FBE1C
:100900000F901F901895883109F488C0803251F7F4
:100910008093BA0114C0803409F49DC040F4803340
:10092000B9F38833F9F68093BA0185ECB0C080350D
:1009300009F485C0883509F496C0883499F60E9478
:100940005303D0CF883909F48CC038F5883729F0A3
:1009500050F4883611F0803729F683E08093BB018C
:100960001092B90157C0883809F47BC0803919F05A
:10097000803809F0B7CF8091B901803208F071C09A
:10098000E091B90181E08E0F8093B9018091BB00A5
:10099000F0E0E756FE4F80833DC0803B39F0E0F445
:1009A000803A09F479C0883A09F09CCF84E08093BA
:1009B000BB011092980110929701E091E301F09130
:1009C000E40109958091970181110FC081E0809326
:1009D00097011092770109C0803C09F4A6CF883CAA
:1009E00009F4A3CF883B09F07DCFE091980181E025
:1009F0008E0F80939801F0E0E958FE4F808180933C
:100A0000BB00909198018091970129C08091E001ED
:100A10008093BB0085EC8093BC0064CF9091DF0194
:100A20008091DE01981758F5E091DF0181E08E0F8B
:100A30008093DF01F0E0E254FE4F8081E9CFE09146
:100A4000DF0181E08E0F8093DF018091BB00F0E039
:100A5000E254FE4F80839091DF018091DE01981770
:100A6000C8F285E8D8CFE091DF0181E08E0F809356
:100A7000DF018091BB00F0E0E254FE4F8083809163
:100A8000BD0181115CCF81E08093BC0184EA809339
:100A9000BC001092BB0126CF85EC8093BC00109265
:100AA000BB018091B901803230F4E091B901F0E0EE
:100AB000E756FE4F10826091B90170E0E091E101CC
:100AC000F091E20189E991E009951092B9010ACF0C
:100AD0001092BA0134CF1F920F920FB60F921124C9
:100AE0002F933F934F935F936F937F938F939F9336
:100AF000AF93BF93CF93DF93EF93FF938091500118
:100B0000C091C502D0E087FF24C0109285001092EA
:100B10008400809150018F5F80935001809150013B
:100B2000082E000C990B8C179D0724F4809150011E
:100B30008C30C4F1809184009091850004968034BB
:100B40009C4908F47AC080918400909185000496B5
:100B500076C080915001082E000C990B8C179D07D0
:100B6000C4F6E09150018E2FEE0F990BFC01EE0FB1
:100B7000FF1FE80FF91FEF55FD4F808186FFC9CF9A
:100B8000E09150018E2FEE0F990BFC01EE0FFF1F2D
:100B9000E80FF91FEF55FD4F808160E08F730E94D1
:100BA000DC00B7CF2091840030918500E0915001A6
:100BB0008E2FEE0F990BFC01EE0FFF1FE80FF91FB0
:100BC000EF55FD4F81819281820F931F9093890091
:100BD00080938800E09150018E2FEE0F990BFC015D
:100BE000EE0FFF1FE80FF91FEF55FD4F808186FFC5
:100BF00011C0E09150018E2FEE0F990BFC01EE0F0A
:100C0000FF1FE80FF91FEF55FD4F808161E08F73E3
:100C10000E94DC00FF91EF91DF91CF91BF91AF91E6
:100C20009F918F917F916F915F914F913F912F9104
:100C30000F900FBE0F901F90189580E49CE9909341
:100C40008900809388008FEF80935001E3CF10924A
:100C5000FB011092FA0188EE93E0A0E0B0E08093EF
:100C6000FC019093FD01A093FE01B093FF0124E0ED
:100C700031E03093F9012093F80125EC30E0309316
:100C800005022093040224EC30E030930702209305
:100C9000060220EC30E0309309022093080221EC98
:100CA00030E030930B0220930A0222EC30E03093C4
:100CB0000D0220930C0226EC30E030930F022093BB
:100CC0000E02109211021092120210921302109250
:100CD00014021092980210929702809399029093B6
:100CE0009A02A0939B02B0939C0286E191E09093BC
:100CF0009602809395028091C5028C3098F491E021
:100D0000980F9093C5028093C60290E0FC01EE0F0D
:100D1000FF1FE80FF91FEF55FD4F88EB9BE0928313
:100D2000818308958FEF8093C6020895CF93DF9358
:100D3000CDB7DEB7A1970FB6F894DEBF0FBECDBF1B
:100D4000789484B5826084BD84B5816084BD85B5A6
:100D5000826085BD85B5816085BD80916E008160B2
:100D600080936E0010928100809181008260809358
:100D7000810080918100816080938100809180005A
:100D80008160809380008091B10084608093B10085
:100D90008091B00081608093B00080917A0084607F
:100DA00080937A0080917A00826080937A008091AB
:100DB0007A00816080937A0080917A0080688093C5
:100DC0007A001092C10082E00E94870060E082E019
:100DD0000E94DC008091C6028C3008F050C088E090
:100DE0000E9487008091C602282F30E0F901EE0FA3
:100DF000FF1FE20FF31FEF55FD4F9081907C98602D
:100E000090831092C7021092C8022CE0622F0E94B9
:100E1000FC08829FB001112430E020E0AB01420FBA
:100E2000531FFA01EE0FFF1FE40FF51FEF55FD4FA3
:100E3000908196FD16C02F5F3F4F2C30310571F722
:100E400081110FC01092800082E080938100109287
:100E5000850010928400B19A80916F008260809327
:100E60006F00E091C6028E2F90E0FC01EE0FFF1F95
:100E7000E80FF91FEF55FD4F808180648083109249
:100E8000E8011092E7011092E6011092E5010E943C
:100E9000B7028DE491E09093E4018093E30189E54A
:100EA00091E09093E2018093E10180E18093BA00A8
:100EB0008EE193E09093EA018093E9018AE393E065
:100EC0009093EC018093EB01E0910802F09109020C
:100ED00082E08083E0910402F09105021082E091AB
:100EE0000602F09107028FEC808310921002E091CD
:100EF0000C02F0910D0286E08083E0910A02F091ED
:100F00000B02808180618083E0910A02F0910B02E4
:100F1000808188608083E0910A02F0910B028081D9
:100F200080688083E0910A02F0910B0280818F7DBE
:100F3000808378E8272E312CE4EB8E2E912CA12C87
:100F4000B12C20E420937C0080917A00806480930F
:100F50007A0080917A0086FDFCCF80917800909194
:100F600079009093EE018093ED018AE391E00E9475
:100F70002D03C090ED01D090EE010D2C000CEE0879
:100F8000FF08F7FE9CC06DE288EF91E00E9423020B
:100F900022273327A9012C193D094E095F0919A2FF
:100FA0008E010F5D1F4FCA01B9012AE030E040E019
:100FB00050E00E94CB08605DF80162938F0121151B
:100FC00031054105510579F70115110519F0C801E1
:100FD0000E942D0387E391E00E942D038091ED0193
:100FE0009091EE01833593400CF481C061E082E082
:100FF0000E94DC008091C7026101C81AD10887FDF8
:10100000D394CC0CDD1CCC0CDD1C0D2C000CEE089C
:10101000FF088091C80228E532E0281B310987FDCE
:101020003395220F331F220F331F032E000C440B66
:10103000550B2C193D094E095F09AEE1B0E00E9445
:10104000C008A50194010E94A108DA01C9018C0D14
:101050009D1DAE1DBF1D0E94A6000E9428012B01F0
:101060003C0184EFC82EDD24D394E12CF12C0E94A6
:1010700028016419750986099709683E734081053E
:101080009105A8F321E0C21AD108E108F10888EE21
:10109000480E83E0581E611C711CC114D104E10488
:1010A000F10429F780E090E0892B09F44ACF0E94EF
:1010B000ED01882309F445CF0E94000042CFA7012B
:1010C000960119A28E010F5D1F4FCA01B9012AE0D6
:1010D00030E040E050E00E94CB08605DF801629390
:1010E0008F01211531054105510579F76DCF60E07C
:1010F00082E00E94DC008091C7026101C81AD10819
:1011000087FDD394CC0CDD1CCC0CDD1C0D2C000C0D
:10111000EE08FF088091C80228E532E0281B31095B
:1011200087FD3395220F331F220F331F032E000C30
:10113000440B550B2C193D094E095F09AAE5B0E097
:101140007ECF052E97FB1EF400940E94B80857FD31
:1011500007D00E94CB0807FC03D04EF40C94B808CB
:1011600050954095309521953F4F4F4F5F4F0895D3
:1011700090958095709561957F4F8F4F9F4F089503
:101180000E94ED08A59F900DB49F900DA49F800D27
:10119000911D11240895A1E21A2EAA1BBB1BFD016B
:1011A0000DC0AA1FBB1FEE1FFF1FA217B307E40746
:1011B000F50720F0A21BB30BE40BF50B661F771F9E
:1011C000881F991F1A9469F760957095809590957E
:1011D0009B01AC01BD01CF010895A29FB001B39F57
:1011E000C001A39F700D811D1124911DB29F700D30
:1011F000811D1124911D0895991B79E004C0991F48
:10120000961708F0961B881F7A95C9F78095089560
:10121000EE0FFF1F0590F491E02D0994F894FFCF95
:101220000000000023028301B0017002E101BF0150
:10123000D301000000000A03FF021B03D502F802DD
:10124000E502D602526563656976656420436F6D79
:101250006D616E643A20000D0A00536F696C204D79
:101260006F6973747572652056616C75653A2000FC
:107E0000112484B714BE81FFF0D085E080938100F7
:107E100082E08093C00088E18093C10086E0809377
:107E2000C20080E18093C4008EE0C9D0259A86E02C
:107E300020E33CEF91E0309385002093840096BBD3
:107E4000B09BFECF1D9AA8958150A9F7CC24DD24C4
:107E500088248394B5E0AB2EA1E19A2EF3E0BF2EE7
:107E6000A2D0813461F49FD0082FAFD0023811F036
:107E7000013811F484E001C083E08DD089C08234E0
:107E800011F484E103C0853419F485E0A6D080C0E4
:107E9000853579F488D0E82EFF2485D0082F10E0AE
:107EA000102F00270E291F29000F111F8ED06801E7
:107EB0006FC0863521F484E090D080E0DECF843638
:107EC00009F040C070D06FD0082F6DD080E0C81688
:107ED00080E7D80618F4F601B7BEE895C0E0D1E017
:107EE00062D089930C17E1F7F0E0CF16F0E7DF06D8
:107EF00018F0F601B7BEE89568D007B600FCFDCFD4
:107F0000A601A0E0B1E02C9130E011968C91119780
:107F100090E0982F8827822B932B1296FA010C0160
:107F200087BEE89511244E5F5F4FF1E0A038BF0790
:107F300051F7F601A7BEE89507B600FCFDCF97BE46
:107F4000E89526C08437B1F42ED02DD0F82E2BD052
:107F50003CD0F601EF2C8F010F5F1F4F84911BD097
:107F6000EA94F801C1F70894C11CD11CFA94CF0C13
:107F7000D11C0EC0853739F428D08EE10CD085E9AC
:107F80000AD08FE07ACF813511F488E018D01DD067
:107F900080E101D065CF982F8091C00085FFFCCF94
:107FA0009093C60008958091C00087FFFCCF809118
:107FB000C00084FD01C0A8958091C6000895E0E648
:107FC000F0E098E1908380830895EDDF803219F02E
:107FD00088E0F5DFFFCF84E1DECF1F93182FE3DFCA
:107FE0001150E9F7F2DF1F91089580E0E8DFEE27F6
:047FF000FF270994CA
:027FFE00040479
:00000001FF
