:020000040000FA
:100000000C945D000C9485000C9485000C94850084
:100010000C9485000C9485000C9485000C9485004C
:100020000C9485000C9485000C9485000C940903B5
:100030000C9485000C9485000C9485000C9485002C
:100040000C9467020C9485000C94D7020C94B102B6
:100050000C9485000C9485000C9485000C9485000C
:100060000C9485000C94850000000008000201003B
:100070000003040700000000000000000000000072
:10008000250028002B0000000000240027002A0083
:10009000040404040404040402020202020203032E
:1000A0000303030301020408102040800102040836
:1000B0001020010204081020C50311241FBECFEF39
:1000C000D8E0DEBFCDBF11E0A0E0B1E0EEEEFCE095
:1000D00002C005900D92AC32B107D9F721E0ACE235
:1000E000B1E001C01D92AD3FB207E1F710E0CDE5F0
:1000F000D0E004C02197FE010E946F06CC35D107E5
:10010000C9F70E9422040C9475060C94000090E03C
:10011000FC01EC55FF4F249180579F4FFC018491C7
:10012000882399F090E0880F991FFC01EA57FF4F50
:10013000A591B491FC01E458FF4F859194918FB73C
:10014000F894EC91E22BEC938FBF0895E091FA01C3
:10015000EC3088F54091FB0128E830E0241B3109A0
:1001600047FD3395220F331F220F331F821793074A
:1001700084F04091FC0128E532E0241B310947FD61
:100180003395220F331F220F331F821793070CF46E
:100190009C0122503109220F331F4FB7F8948E2F44
:1001A00090E0FC01EE0FFF1FE80FF91FEB52FE4F2E
:1001B000328321834FBF089590E0FC01E859FF4F3F
:1001C0002491FC01EC55FF4F3491FC01E057FF4FA7
:1001D000E491EE23C9F0222339F0233001F1A8F491
:1001E000213019F1223029F1F0E0EE0FFF1FE45821
:1001F000FF4FA591B4918FB7F894EC91611126C08F
:1002000030953E233C938FBF08952730A9F02830C6
:10021000C9F0243049F7809180008F7D03C0809120
:1002200080008F7780938000DFCF84B58F7784BD87
:10023000DBCF84B58F7DFBCF8091B0008F7780932B
:10024000B000D2CF8091B0008F7DF9CF3E2BDACFB6
:100250003FB7F8948091340190913501A091360117
:10026000B091370126B5A89B05C02F3F19F0019624
:10027000A11DB11D3FBFBA2FA92F982F8827BC0100
:10028000CD01620F711D811D911D42E0660F771F28
:10029000881F991F4A95D1F70895AF92BF92CF92C8
:1002A000DF92EF92FF920F931F93CF93DF936C0136
:1002B0007B018B01040F151FEB015E01AE18BF0817
:1002C000C017D10759F06991D601ED91FC910190C9
:1002D000F081E02DC6010995892B79F7C501DF91E1
:1002E000CF911F910F91FF90EF90DF90CF90BF9033
:1002F000AF900895FC01538D448D252F30E0842F5D
:1003000090E0821B930B541710F0CF96089501973D
:100310000895FC01918D828D981761F0A28DAE0F2A
:10032000BF2FB11D5D968C91928D9F5F9F73928FB1
:1003300090E008958FEF9FEF0895FC01918D828DDD
:10034000981731F0828DE80FF11D858D90E00895AA
:100350008FEF9FEF0895FC01918D228D892F90E002
:10036000805C9F4F821B91098F739927089588E3C2
:1003700091E00E94AB0121E0892B09F420E0822F5B
:10038000089580E090E0892B29F00E94B701811147
:100390000C9400000895FC01A48DA80FB92FB11D85
:1003A000A35ABF4F2C91848D90E001968F739927AB
:1003B000848FA689B7892C93A089B1898C91837089
:1003C00080648C93938D848D981306C00288F38982
:1003D000E02D80818F7D80830895EF92FF920F93AF
:1003E0001F93CF93DF93EC0181E0888F9B8D8C8DE1
:1003F00098131AC0E889F989808185FF15C09FB7D5
:10040000F894EE89FF896083E889F9898081837097
:10041000806480839FBF81E090E0DF91CF911F9146
:100420000F91FF90EF900895F62E0B8D10E00F5F67
:100430001F4F0F731127E02E8C8D8E110CC00FB63D
:1004400007FCFACFE889F989808185FFF5CFCE01D5
:100450000E94CB01F1CFEB8DEC0FFD2FF11DE35A84
:10046000FF4FF0829FB7F8940B8FEA89FB89808158
:100470008062CFCFCF93DF93EC01888D8823B9F0D2
:10048000AA89BB89E889F9898C9185FD03C080819F
:1004900086FD0DC00FB607FCF7CF8C9185FFF2CF1C
:1004A000808185FFEDCFCE010E94CB01E9CFDF91A6
:1004B000CF910895FC0101900020E9F73197AF0139
:1004C000481B590BBC0188E391E00C944D011F922D
:1004D0000F920FB60F9211242F933F938F939F93F8
:1004E000AF93BF938091300190913101A09132017F
:1004F000B091330130912F0123E0230F2D3758F5B0
:100500000196A11DB11D20932F018093300190937E
:100510003101A0933201B093330180913401909165
:100520003501A0913601B09137010196A11DB11D91
:100530008093340190933501A0933601B093370135
:10054000BF91AF919F918F913F912F910F900FBECF
:100550000F901F90189526E8230F0296A11DB11D3C
:10056000D2CF1F920F920FB60F9211242F933F9369
:100570004F935F936F937F938F939F93AF93BF93AB
:10058000EF93FF9388E391E00E94CB01FF91EF91FD
:10059000BF91AF919F918F917F916F915F914F919B
:1005A0003F912F910F900FBE0F901F9018951F92A3
:1005B0000F920FB60F9211242F938F939F93EF9367
:1005C000FF93E0914801F09149018081E0914E0153
:1005D000F0914F0182FD1BC09081809151018F5F8E
:1005E0008F7320915201821741F0E0915101F0E0A8
:1005F000E85CFE4F958F80935101FF91EF919F91A1
:100600008F912F910F900FBE0F901F9018958081A2
:10061000F4CF1F920F920FB60F9211242F933F9396
:100620004F935F936F937F938F939F93AF93BF93FA
:10063000CF93DF93EF93FF9380912C01C091F90149
:10064000D0E087FF24C01092850010928400809132
:100650002C018F5F80932C0180912C01082E000CBF
:10066000990B8C179D0724F480912C018C30C4F1D8
:100670008091840090918500049680349C4908F410
:100680007AC08091840090918500049676C0809114
:100690002C01082E000C990B8C179D07C4F6E091D5
:1006A0002C018E2FEE0F990BFC01EE0FFF1FE80FB0
:1006B000F91FEB52FE4F808186FFC9CFE0912C01DC
:1006C0008E2FEE0F990BFC01EE0FFF1FE80FF91FA5
:1006D000EB52FE4F808160E08F730E94DC00B7CF49
:1006E0002091840030918500E0912C018E2FEE0F37
:1006F000990BFC01EE0FFF1FE80FF91FEB52FE4FA5
:1007000081819281820F931F90938900809388004A
:10071000E0912C018E2FEE0F990BFC01EE0FFF1FC5
:10072000E80FF91FEB52FE4F808186FF11C0E09168
:100730002C018E2FEE0F990BFC01EE0FFF1FE80F1F
:10074000F91FEB52FE4F808161E08F730E94DC0045
:10075000FF91EF91DF91CF91BF91AF919F918F91D9
:100760007F916F915F914F913F912F910F900FBEAD
:100770000F901F90189580E49CE9909389008093D6
:1007800088008FEF80932C01E3CF10923B011092F1
:100790003A0188EE93E0A0E0B0E080933C019093B2
:1007A0003D01A0933E01B0933F0184E091E090931E
:1007B00039018093380185EC90E090934501809356
:1007C000440184EC90E0909347018093460180ECD3
:1007D00090E0909349018093480181EC90E09093E0
:1007E0004B0180934A0182EC90E090934D018093FD
:1007F0004C0186EC90E090934F0180934E01109253
:1008000051011092520110925301109254018091A3
:10081000F9018C3098F491E0980F9093F90180934E
:10082000FA0190E0FC01EE0FFF1FE80FF91FEB52F9
:10083000FE4F88EB9BE09283818308958FEF809336
:10084000FA010895CF93DF93CDB7DEB7A1970FB626
:10085000F894DEBF0FBECDBF789484B5826084BDAE
:1008600084B5816084BD85B5826085BD85B58160B4
:1008700085BD80916E00816080936E001092810032
:1008800080918100826080938100809181008160ED
:1008900080938100809180008160809380008091AE
:1008A000B10084608093B1008091B000816080933A
:1008B000B00080917A00846080937A0080917A0001
:1008C000826080937A0080917A00816080937A00C0
:1008D00080917A00806880937A001092C10082E053
:1008E0000E94870060E082E00E94DC008091FA01B3
:1008F0008C3008F050C088E00E9487008091FA0197
:10090000282F30E0F901EE0FFF1FE20FF31FEB522B
:10091000FE4F9081907C986090831092FB01109222
:10092000FC012CE0622F0E946306829FB00111241B
:1009300030E020E0AB01420F531FFA01EE0FFF1F22
:10094000E40FF51FEB52FE4F908196FD16C02F5F0E
:100950003F4F2C30310571F781110FC0109280008C
:1009600082E0809381001092850010928400B19AF9
:1009700080916F00826080936F00E091FA018E2F6A
:1009800090E0FC01EE0FFF1FE80FF91FEB52FE4F46
:10099000808180648083E0914801F091490182E088
:1009A0008083E0914401F09145011082E09146017D
:1009B000F09147018FEC808310925001E0914C013F
:1009C000F0914D0186E08083E0914A01F0914B0166
:1009D000808180618083E0914A01F0914B018081A8
:1009E00088608083E0914A01F0914B0180818068AA
:1009F0008083E0914A01F0914B0180818F7D80835B
:100A000078E8272E312CE4EB8E2E912CA12CB12CE2
:100A100020E420937C0080917A00806480937A00A7
:100A200080917A0086FDFCCF8091780090917900CA
:100A300090932E0180932D0182E191E00E945A0251
:100A4000C0902D01D0902E010D2C000CEE08FF0857
:100A5000F7FE9CC06DE288E391E00E94ED01222741
:100A60003327A9012C193D094E095F0919A28E01EE
:100A70000F5D1F4FCA01B9012AE030E040E050E0AD
:100A80000E943206605DF80162938F0121153105E5
:100A90004105510579F70115110519F0C8010E94AA
:100AA0005A0288E291E00E945A0280912D019091B1
:100AB0002E01833593400CF481C061E082E00E94F6
:100AC000DC008091FB016101C81AD10887FDD39435
:100AD000CC0CDD1CCC0CDD1C0D2C000CEE08FF0832
:100AE0008091FC0128E532E0281B310987FD339510
:100AF000220F331F220F331F032E000C440B550B04
:100B00002C193D094E095F09AEE1B0E00E942706AD
:100B1000A50194010E940806DA01C9018C0D9D1DF2
:100B2000AE1DBF1D0E94A6000E9428012B013C01A2
:100B300084EFC82EDD24D394E12CF12C0E942801EF
:100B40006419750986099709683E73408105910506
:100B5000A8F321E0C21AD108E108F10888EE480E96
:100B600083E0581E611C711CC114D104E104F1041E
:100B700029F780E090E0892B09F44ACF0E94B70161
:100B8000882309F445CF0E94000042CFA7019601B7
:100B900019A28E010F5D1F4FCA01B9012AE030E092
:100BA00040E050E00E943206605DF80162938F01E0
:100BB000211531054105510579F76DCF60E082E0DF
:100BC0000E94DC008091FB016101C81AD10887FDF9
:100BD000D394CC0CDD1CCC0CDD1C0D2C000CEE08D1
:100BE000FF088091FC0128E532E0281B310987FDD0
:100BF0003395220F331F220F331F032E000C440B9B
:100C0000550B2C193D094E095F09AAE5B0E07ECFCE
:100C1000052E97FB1EF400940E941F0657FD07D077
:100C20000E94320607FC03D04EF40C941F06509528
:100C30004095309521953F4F4F4F5F4F08959095C8
:100C40008095709561957F4F8F4F9F4F08950E94BB
:100C50005406A59F900DB49F900DA49F800D911DEB
:100C600011240895A1E21A2EAA1BBB1BFD010DC081
:100C7000AA1FBB1FEE1FFF1FA217B307E407F5074C
:100C800020F0A21BB30BE40BF50B661F771F881F28
:100C9000991F1A9469F760957095809590959B01BE
:100CA000AC01BD01CF010895A29FB001B39FC00167
:100CB000A39F700D811D1124911DB29F700D811D88
:100CC0001124911D0895991B79E004C0991F96176E
:100CD00008F0961B881F7A95C9F780950895EE0F46
:100CE000FF1F0590F491E02D0994F894FFCF0000C8
:100CF0000000ED014D017A013A02AB0189019D012D
:100D0000536F696C204D6F697374757265205661FD
:0A0D10006C75653A20000D0A000022
:107E0000112484B714BE81FFF0D085E080938100F7
:107E100082E08093C00088E18093C10086E0809377
:107E2000C20080E18093C4008EE0C9D0259A86E02C
:107E300020E33CEF91E0309385002093840096BBD3
:107E4000B09BFECF1D9AA8958150A9F7CC24DD24C4
:107E500088248394B5E0AB2EA1E19A2EF3E0BF2EE7
:107E6000A2D0813461F49FD0082FAFD0023811F036
:107E7000013811F484E001C083E08DD089C08234E0
:107E800011F484E103C0853419F485E0A6D080C0E4
:107E9000853579F488D0E82EFF2485D0082F10E0AE
:107EA000102F00270E291F29000F111F8ED06801E7
:107EB0006FC0863521F484E090D080E0DECF843638
:107EC00009F040C070D06FD0082F6DD080E0C81688
:107ED00080E7D80618F4F601B7BEE895C0E0D1E017
:107EE00062D089930C17E1F7F0E0CF16F0E7DF06D8
:107EF00018F0F601B7BEE89568D007B600FCFDCFD4
:107F0000A601A0E0B1E02C9130E011968C91119780
:107F100090E0982F8827822B932B1296FA010C0160
:107F200087BEE89511244E5F5F4FF1E0A038BF0790
:107F300051F7F601A7BEE89507B600FCFDCF97BE46
:107F4000E89526C08437B1F42ED02DD0F82E2BD052
:107F50003CD0F601EF2C8F010F5F1F4F84911BD097
:107F6000EA94F801C1F70894C11CD11CFA94CF0C13
:107F7000D11C0EC0853739F428D08EE10CD085E9AC
:107F80000AD08FE07ACF813511F488E018D01DD067
:107F900080E101D065CF982F8091C00085FFFCCF94
:107FA0009093C60008958091C00087FFFCCF809118
:107FB000C00084FD01C0A8958091C6000895E0E648
:107FC000F0E098E1908380830895EDDF803219F02E
:107FD00088E0F5DFFFCF84E1DECF1F93182FE3DFCA
:107FE0001150E9F7F2DF1F91089580E0E8DFEE27F6
:047FF000FF270994CA
:027FFE00040479
:00000001FF
