:100000000C945D000C9485000C9485000C94850084
:100010000C9485000C9485000C9485000C9485004C
:100020000C9485000C9485000C9485000C9485003C
:100030000C9485000C9485000C9485000C9485002C
:100040000C94DB020C9485000C944B030C94250358
:100050000C9485000C9485000C9485000C9485000C
:100060000C947D030C948500000000002400270000
:100070002A0000000000250028002B0004040404CE
:100080000404040402020202020203030303030342
:10009000010204081020408001020408102001021F
:1000A00004081020000000080002010000030407FB
:1000B0000000000000000000980411241FBECFEFD4
:1000C000D8E0DEBFCDBF11E0A0E0B1E0ECE6FCE09F
:1000D00002C005900D92AC32B107D9F722E0ACE234
:1000E000B1E001C01D92A534B207E1F710E0CDE503
:1000F000D0E004C02197FE010E942E06CC35D10726
:10010000C9F70E94C5040C9434060C94000090E0DA
:10011000FC01EC55FF4F2491FC01E057FF4F349157
:10012000FC01E458FF4FE491EE23C9F0222339F09B
:10013000233001F1A8F4213019F1223029F1F0E047
:10014000EE0FFF1FEE58FF4FA591B4918FB7F894B3
:10015000EC91611126C030953E233C938FBF0895EA
:100160002730A9F02830C9F0243049F78091800069
:100170008F7D03C0809180008F7780938000DFCFD8
:1001800084B58F7784BDDBCF84B58F7DFBCF809125
:10019000B0008F778093B000D2CF8091B0008F7D78
:1001A000F9CF3E2BDACF3FB7F8948091A40190911C
:1001B000A501A091A601B091A70126B5A89B05C0F5
:1001C0002F3F19F00196A11DB11D3FBFBA2FA92FD6
:1001D000982F8827BC01CD01620F711D811D911DD3
:1001E00042E0660F771F881F991F4A95D1F708953F
:1001F000AF92BF92CF92DF92EF92FF920F931F9335
:10020000CF93DF936C017B018B01040F151FEB0172
:100210005E01AE18BF08C017D10759F06991D60129
:10022000ED91FC910190F081E02DC6010995892B9B
:1002300079F7C501DF91CF911F910F91FF90EF905A
:10024000DF90CF90BF90AF900895FC01538D448D07
:10025000252F30E0842F90E0821B930B541710F071
:10026000CF96089501970895FC01918D828D98177E
:1002700061F0A28DAE0FBF2FB11D5D968C91928D56
:100280009F5F9F73928F90E008958FEF9FEF089587
:10029000FC01918D828D981731F0828DE80FF11D50
:1002A000858D90E008958FEF9FEF0895FC01918D6B
:1002B000228D892F90E0805C9F4F821B91098F7364
:1002C0009927089588EA91E00E94560121E0892B40
:1002D00009F420E0822F089580E090E0892B29F036
:1002E0000E94620181110C9400000895FC01A48D0C
:1002F000A80FB92FB11DA35ABF4F2C91848D90E048
:1003000001968F739927848FA689B7892C93A0892A
:10031000B1898C91837080648C93938D848D9813B4
:1003200006C00288F389E02D80818F7D8083089547
:10033000EF92FF920F931F93CF93DF93EC0181E035
:10034000888F9B8D8C8D98131AC0E889F9898081DC
:1003500085FF15C09FB7F894EE89FF896083E8890F
:10036000F98980818370806480839FBF81E090E001
:10037000DF91CF911F910F91FF90EF900895F62E8E
:100380000B8D10E00F5F1F4F0F731127E02E8C8D28
:100390008E110CC00FB607FCFACFE889F98980816D
:1003A00085FFF5CFCE010E947601F1CFEB8DEC0FEA
:1003B000FD2FF11DE35AFF4FF0829FB7F8940B8F8A
:1003C000EA89FB8980818062CFCFCF93DF93EC01F4
:1003D000888D8823B9F0AA89BB89E889F9898C912D
:1003E00085FD03C0808186FD0DC00FB607FCF7CFE9
:1003F0008C9185FFF2CF808185FFEDCFCE010E94E9
:100400007601E9CFDF91CF91089520915301260F16
:100410003327331F21323105ECF420917701FC01A1
:1004200090E080E0243069F082E00895A0915301CB
:100430002191AC014D5C5E4FA40FB52FB11D2C93E3
:100440000196861798F380915301680F60935301CA
:1004500080E0089581E0089508958FEF9FEF08955B
:100460008FEF9FEF089580912C0190E091958195F9
:1004700091090895CF93DF93CB01EA01642F0E9485
:100480000502CE01DF91CF910895CF93DF931F92A4
:10049000CDB7DEB7698361E0CE0101960E94050207
:1004A00081E090E00F90DF91CF91089590E080E09F
:1004B0000895FC0101900020E9F73197AF01481B36
:1004C000590BBC0188EA91E00C94F8001F93CF937C
:1004D000DF9385ED8093BC0080912F0190913001D6
:1004E000A0913101B09132010796A11DB11D23E009
:1004F000B695A795979587952A95D1F72091BC0039
:1005000024FD03C01092770152C040912F015091F9
:1005100030016091310170913201452B462B472B00
:1005200069F30097A105B10541F02AE22A95F1F798
:1005300000C00197A109B109E1CF80912E01C1E06E
:10054000C0932D01882399F1D091B8001091BA0081
:100550008091BC008A7B8093BC0060E082E10E94B5
:10056000870060E083E10E94870010927701C093CA
:1005700079011092780161E082E10E94870061E0D8
:1005800083E10E9487008091B9008E7F8093B9003B
:100590008091B9008D7F8093B90088E48093B80082
:1005A00085E48093BC001093BA00D093B800DF912B
:1005B000CF911F9108951F920F920FB60F921124A1
:1005C0002F933F938F939F93AF93BF938091A001FD
:1005D0009091A101A091A201B091A30130919F013E
:1005E00023E0230F2D3758F50196A11DB11D20934F
:1005F0009F018093A0019093A101A093A201B093C9
:10060000A3018091A4019091A501A091A601B091B0
:10061000A7010196A11DB11D8093A4019093A5018E
:10062000A093A601B093A701BF91AF919F918F9125
:100630003F912F910F900FBE0F901F90189526E8B5
:10064000230F0296A11DB11DD2CF1F920F920FB69C
:100650000F9211242F933F934F935F936F937F9348
:100660008F939F93AF93BF93EF93FF9388EA91E0AB
:100670000E947601FF91EF91BF91AF919F918F9171
:100680007F916F915F914F913F912F910F900FBE8E
:100690000F901F9018951F920F920FB60F92112472
:1006A0002F938F939F93EF93FF93E091B801F09175
:1006B000B9018081E091BE01F091BF0182FD1BC0B4
:1006C00090818091C1018F5F8F732091C201821749
:1006D00041F0E091C101F0E0E855FE4F958F809325
:1006E000C101FF91EF919F918F912F910F900FBEBC
:1006F0000F901F9018958081F4CF1F920F920FB624
:100700000F9211242F933F934F935F936F937F9397
:100710008F939F93AF93BF93EF93FF938091B90013
:10072000887F803609F44AC0F0F5883209F4A5C004
:1007300018F5803109F499C0B8F4882309F4F5C09C
:10074000883009F492C0FF91EF91BF91AF919F91D2
:100750008F917F916F915F914F913F912F910F906A
:100760000FBE0F901F901895883109F486C0803213
:1007700051F78093760114C0803409F49BC040F493
:100780008033B9F38833F9F68093760185ECAEC0F7
:10079000803509F483C0883509F494C0883499F60B
:1007A0000E946602D0CF883909F48AC038F58837AC
:1007B00029F050F4883611F0803729F683E08093D1
:1007C00077011092750155C0883809F479C08039D5
:1007D00019F0803809F0B7CF80917501803208F0A8
:1007E0006FC0E091750181E08E0F8093750180915B
:1007F000BB00F0E0EB5AFE4F80833BC0803B39F0FA
:10080000D0F4803A09F477C0883A09F09CCF84E0AC
:10081000809377011092540110925301F0E0E0E0D0
:1008200009958091530181110FC081E0809353019C
:100830001092330109C0803C09F4A8CF883C09F428
:10084000A5CF883B09F07FCFE091540181E08E0F66
:1008500080935401F0E0ED5CFE4F80818093BB00FB
:10086000909154018091530129C080919C01809303
:10087000BB0085EC8093BC0066CF90919B0180917A
:100880009A01981758F5E0919B0181E08E0F8093B3
:100890009B01F0E0E658FE4F8081E9CFE0919B019B
:1008A00081E08E0F80939B018091BB00F0E0E658C1
:1008B000FE4F808390919B0180919A019817C8F216
:1008C00085E8D8CFE0919B0181E08E0F80939B015A
:1008D0008091BB00F0E0E658FE4F80838091790163
:1008E00081115ECF81E08093780184EA8093BC001F
:1008F0001092770128CF85EC8093BC00109277018D
:1009000080917501803230F4E0917501F0E0EB5A8E
:10091000FE4F10826091750170E085E591E0F0E096
:10092000E0E00995109275010ECF1092760138CF54
:10093000E8EAF1E01382128288EE93E0A0E0B0E0F2
:1009400084839583A683B78384E091E09183808339
:1009500085EC90E09587848784EC90E09787868784
:1009600080EC90E0918B808B81EC90E0938B828B7C
:1009700082EC90E0958B848B86EC90E0978B868B55
:10098000118E128E138E148E0895CF93DF93CDB7F0
:10099000DEB7A1970FB6F894DEBF0FBECDBF789437
:1009A00084B5826084BD84B5816084BD85B5826074
:1009B00085BD85B5816085BD80916E008160809325
:1009C0006E0010928100809181008260809381008E
:1009D000809181008160809381008091800081609E
:1009E000809380008091B10084608093B1008091F9
:1009F000B00081608093B00080917A008460809321
:100A00007A0080917A00826080937A0080917A00E7
:100A1000816080937A0080917A00806880937A0068
:100A20001092C100E2E9F0E02491EEE7F0E0849159
:100A3000882399F090E0880F991FFC01E859FF4F37
:100A4000A591B491FC01EE58FF4F859194918FB719
:100A5000F894EC91E22BEC938FBF60E082E00E946F
:100A60008700E091B801F091B90182E08083E091C4
:100A7000B401F091B5011082E091B601F091B70197
:100A80008FEC80831092C001E091BC01F091BD0118
:100A900086E08083E091BA01F091BB0180818061A2
:100AA0008083E091BA01F091BB01808188608083EE
:100AB000E091BA01F091BB01808180688083E09170
:100AC000BA01F091BB0180818F7D808390E4392E43
:100AD0002AE0822E912CA12CB12C00E010E0309263
:100AE0007C0080917A00806480937A0080917A0003
:100AF00086FDFCCF809178009091790090939E01C3
:100B000080939D0182E191E00E945902C0909D0175
:100B1000D0909E010D2C000CEE08FF08F7FE66C079
:100B20006DE288EA91E00E94980122273327A9010B
:100B30002C193D094E095F0919A2CE0181967C014D
:100B4000CA01B901A50194010E940C06605DF7017C
:100B500062937F01211531054105510589F7E114A3
:100B6000F10419F0C7010E94590288E291E00E9445
:100B7000590280919D0190919E0161E083359340DF
:100B80000CF460E082E00E9487000E94D3002B01F9
:100B90003C0184EFC82EDD24D394E12CF12C0E947B
:100BA000D3006419750986099709683E7340810569
:100BB0009105A8F321E0C21AD108E108F10888EEF6
:100BC000480E83E0581E611C711CC114D104E1045D
:100BD000F10429F70115110509F481CF0E94620182
:100BE000882309F47CCF0E94000079CFA7019601E9
:100BF00019A2CE0181967C01CA01B901A501940117
:100C00000E940C06605DF70162937F01211531059A
:100C10004105510589F7A3CFA1E21A2EAA1BBB1BE0
:100C2000FD010DC0AA1FBB1FEE1FFF1FA217B307B8
:100C3000E407F50720F0A21BB30BE40BF50B661FCE
:100C4000771F881F991F1A9469F760957095809592
:100C500090959B01AC01BD01CF010895EE0FFF1FE0
:0C0C60000590F491E02D0994F894FFCF6A
:100C6C00000000009801F8002501E501560134014F
:100C7C004801536F696C204D6F69737475726520F0
:0C0C8C0056616C75653A20000D0A0000EE
:00000001FF
