:020000040000FA
:100000000C9435000C945D000C945D000C945D0024
:100010000C945D000C945D000C945D000C945D00EC
:100020000C945D000C945D000C945D000C945D00DC
:100030000C945D000C945D000C945D000C945D00CC
:100040000C94E2010C945D000C9452020C942C026E
:100050000C945D000C945D000C945D000C945D00AC
:100060000C945D000C945D00040411241FBECFEFBE
:10007000D8E0DEBFCDBF11E0A0E0B1E0ECEBFCE0EA
:1000800002C005900D92AE32B107D9F721E0AEE281
:10009000B1E001C01D92A43DB207E1F710E0C5E355
:1000A000D0E004C02197FE010E945606C433D10758
:1000B000C9F70E9484020C945C060C9400003FB7C0
:1000C000F8948091330190913401A0913501B09161
:1000D000360126B5A89B05C02F3F19F00196A11D3A
:1000E000B11D3FBFBA2FA92F982F8827BC01CD0182
:1000F000620F711D811D911D42E0660F771F881FE1
:10010000991F4A95D1F70895AF92BF92CF92DF928F
:10011000EF92FF920F931F93CF93DF936C017B01BC
:100120008B01040F151FEB015E01AE18BF08C0174D
:10013000D10759F06991D601ED91FC910190F081C0
:10014000E02DC6010995892B79F7C501DF91CF9183
:100150001F910F91FF90EF90DF90CF90BF90AF90E5
:100160000895FC01538D448D252F30E0842F90E0BD
:10017000821B930B541710F0CF96089501970895A2
:10018000FC01918D828D981761F0A28DAE0FBF2F6B
:10019000B11D5D968C91928D9F5F9F73928F90E0C1
:1001A00008958FEF9FEF0895FC01918D828D981730
:1001B00031F0828DE80FF11D858D90E008958FEF6D
:1001C0009FEF0895FC01918D228D892F90E0805C36
:1001D0009F4F821B91098F739927089587E391E0C0
:1001E0000E94E20021E0892B09F420E0822F08958B
:1001F00080E090E0892B29F00E94EE0081110C94A0
:1002000000000895FC01A48DA80FB92FB11DA35AB9
:10021000BF4F2C91848D90E001968F739927848F26
:10022000A689B7892C93A089B1898C918370806449
:100230008C93938D848D981306C00288F389E02DEA
:1002400080818F7D80830895EF92FF920F931F939B
:10025000CF93DF93EC0181E0888F9B8D8C8D981379
:100260001AC0E889F989808185FF15C09FB7F89485
:10027000EE89FF896083E889F989808183708064D1
:1002800080839FBF81E090E0DF91CF911F910F911C
:10029000FF90EF900895F62E0B8D10E00F5F1F4F2B
:1002A0000F731127E02E8C8D8E110CC00FB607FC3A
:1002B000FACFE889F989808185FFF5CFCE010E94C8
:1002C0000201F1CFEB8DEC0FFD2FF11DE35AFF4F33
:1002D000F0829FB7F8940B8FEA89FB898081806256
:1002E000CFCFCF93DF93EC01888D8823B9F0AA8913
:1002F000BB89E889F9898C9185FD03C0808186FDE1
:100300000DC00FB607FCF7CF8C9185FFF2CF80812F
:1003100085FFEDCFCE010E940201E9CFDF91CF91A1
:100320000895FC0101900020E9F73197AF01481BC7
:10033000590BBC0187E391E00C9484008F929F924B
:10034000AF92BF920F931F93CF93DF93CDB7DEB7DA
:10035000A1970FB6F894DEBF0FBECDBF19A24230F1
:1003600008F44AE08E010F5D1F4F842E912CB12CB2
:10037000A12CA50194010E945B04E62FB901CA01DA
:10038000EA30F4F4E05DD801EE938D01232B242BA9
:10039000252B79F790E080E0109719F0CD010E94AD
:1003A0009101A1960FB6F894DEBF0FBECDBFDF91CD
:1003B000CF911F910F91BF90AF909F908F90089514
:1003C000E95CE1CF1F920F920FB60F9211242F9389
:1003D0003F938F939F93AF93BF9380912F01909101
:1003E0003001A0913101B091320130912E0123E012
:1003F000230F2D3758F50196A11DB11D20932E0115
:1004000080932F0190933001A0933101B09332017A
:100410008091330190913401A0913501B091360162
:100420000196A11DB11D8093330190933401A093D7
:100430003501B0933601BF91AF919F918F913F915C
:100440002F910F900FBE0F901F90189526E8230F45
:100450000296A11DB11DD2CF1F920F920FB60F921F
:1004600011242F933F934F935F936F937F938F93B9
:100470009F93AF93BF93EF93FF9387E391E00E9425
:100480000201FF91EF91BF91AF919F918F917F9169
:100490006F915F914F913F912F910F900FBE0F90F1
:1004A0001F9018951F920F920FB60F9211242F9341
:1004B0008F939F93EF93FF93E0914701F091480151
:1004C0008081E0914D01F0914E0182FD1BC0908131
:1004D000809150018F5F8F7320915101821741F0FD
:1004E000E0915001F0E0E95CFE4F958F8093500160
:1004F000FF91EF919F918F912F910F900FBE0F90D1
:100500001F9018958081F4CF789484B5826084BD63
:1005100084B5816084BD85B5826085BD85B5816007
:1005200085BD80916E00816080936E001092810085
:100530008091810082608093810080918100816040
:100540008093810080918000816080938000809101
:10055000B10084608093B1008091B000816080938D
:10056000B00080917A00846080937A0080917A0054
:10057000826080937A0080917A00816080937A0013
:1005800080917A00806880937A001092C100E09197
:100590004701F091480182E08083E0914301F091AE
:1005A00044011082E0914501F09146018FEC808377
:1005B00010924F01E0914B01F0914C0186E0808355
:1005C000E0914901F0914A01808180618083E0914E
:1005D0004901F0914A01808188608083E09149015E
:1005E000F0914A01808180688083E0914901F09117
:1005F0004A0180818F7D808310E4C0E0D0E01093B9
:100600007C0080917A00806480937A0080917A00E7
:1006100086FDFCCF2091780030917900032E000CEC
:10062000440B550B2F5F334041095109A4E6B0E05C
:100630000E94500421E03CEF4FEF5FEF0E94310435
:10064000CA01B9010E942F056B017C014B015C01BD
:1006500082E191E00E949101A7019601C701B601D4
:100660000E9451068823E1F18DE191E00E94910101
:1006700089E291E00E9491018BE291E00E94910158
:100680000E945F004B015C0188EEC82E83E0D82EEB
:10069000E12CF12C0E945F00681979098A099B09F5
:1006A000683E734081059105A8F321E0C21AD10884
:1006B000E108F10888EE880E83E0981EA11CB11CA9
:1006C000C114D104E104F10429F7209709F497CF6C
:1006D0000E94EE00882309F492CF0E9400008FCF81
:1006E00026013701E89477F82FEF3FEF4FE75FE7F8
:1006F000C301B2010E94510681110DC02FEF3FEFDF
:100700004FE75FE7C301B2010E94F90418161CF419
:1007100081E291E0ABCF2FEF3FEF4FE75FE4C701FE
:10072000B6010E94DF0518161CF485E291E09ECF09
:100730002FEF3FEF4FE75FECC701B6010E94F904CE
:1007400087FDF3CF20E030E0A901C701B6010E9488
:10075000F90487FF0BC06DE287E391E00E9424015A
:1007600046015701B7FAB094B7F8B0942AE037EDD4
:1007700043EA5BE3C501B4010E948D044B015C01B7
:100780000E94FE046B017C010E942D059B01AC01BF
:10079000C501B4010E948C044B015C014AE0C70111
:1007A000B6010E949E016EE287E391E00E9424015F
:1007B00020E030E040E251E4C501B4010E94E405CC
:1007C0004B015C010E94FE046B01F12CE12C4AE01C
:1007D000C701B6010E949E01C701B6010E942D0506
:1007E0009B01AC01C501B4010E948C0420E030E003
:1007F00040E251E40E94E4050E94FE0490E080E0A3
:100800004AE00E949E0134CFE7E3F1E013821282B6
:1008100088EE93E0A0E0B0E084839583A683B7835D
:1008200084E091E09183808385EC90E095878487D4
:1008300084EC90E09787868780EC90E0918B808BAA
:1008400081EC90E0938B828B82EC90E0958B848B93
:1008500086EC90E0978B868B118E128E138E148E01
:100860000895052E97FB1EF400940E94480457FD3E
:1008700007D00E945B0407FC03D04EF40C9448049C
:1008800050954095309521953F4F4F4F5F4F0895BC
:1008900090958095709561957F4F8F4F9F4F0895EC
:1008A0000E947D04A59F900DB49F900DA49F800D84
:1008B000911D11240895A1E21A2EAA1BBB1BFD0154
:1008C0000DC0AA1FBB1FEE1FFF1FA217B307E4072F
:1008D000F50720F0A21BB30BE40BF50B661F771F87
:1008E000881F991F1A9469F7609570958095909567
:1008F0009B01AC01BD01CF010895A29FB001B39F40
:10090000C001A39F700D811D1124911DB29F700D18
:10091000811D1124911D08955058BB27AA270E94BC
:10092000A4040C94A5050E94970538F00E949E052A
:1009300020F039F49F3F19F426F40C9494050EF43A
:10094000E095E7FB0C948E05E92F0E94B60558F35D
:10095000BA17620773078407950720F079F4A6F5A4
:100960000C94D8050EF4E0950B2EBA2FA02D0B0198
:10097000B90190010C01CA01A0011124FF27591BE4
:1009800099F0593F50F4503E68F11A16F040A22FEA
:10099000232F342F4427585FF3CF4695379527955B
:1009A000A795F0405395C9F77EF41F16BA0B620B5A
:1009B000730B840BBAF09150A1F0FF0FBB1F661FA1
:1009C000771F881FC2F70EC0BA0F621F731F841FE4
:1009D00048F4879577956795B795F7959E3F08F00A
:1009E000B0CF9395880F08F09927EE0F97958795CC
:1009F00008950E946A0508F481E008950E94BE05EA
:100A000088F09F5798F0B92F9927B751B0F0E1F0CF
:100A1000660F771F881F991F1AF0BA95C9F714C07F
:100A2000B13091F00E94D805B1E008950C94D8053A
:100A3000672F782F8827B85F39F0B93FCCF38695B8
:100A400077956795B395D9F73EF490958095709515
:100A500061957F4F8F4F9F4F0895E89409C097FB92
:100A60003EF490958095709561957F4F8F4F9F4F85
:100A70009923A9F0F92F96E9BB279395F6958795C9
:100A800077956795B795F111F8CFFAF4BB0F11F48C
:100A900060FF1BC06F5F7F4F8F4F9F4F16C0882333
:100AA00011F096E911C0772321F09EE8872F762F69
:100AB00005C0662371F096E8862F70E060E02AF0AA
:100AC0009A95660F771F881FDAF7880F9695879596
:100AD00097F90895990F0008550FAA0BE0E8FEEF6B
:100AE00016161706E807F907C0F012161306E407F2
:100AF000F50798F0621B730B840B950B39F40A26EB
:100B000061F0232B242B252B21F408950A2609F4C8
:100B1000A140A6958FEF811D811D089597F99F67CC
:100B200080E870E060E008959FEF80EC0895002475
:100B30000A941616170618060906089500240A9442
:100B400012161306140605060895092E0394000CC8
:100B500011F4882352F0BB0F40F4BF2B11F460FF57
:100B600004C06F5F7F4F8F4F9F4F089557FD905880
:100B7000440F551F59F05F3F71F04795880F97FB61
:100B8000991F61F09F3F79F087950895121613061B
:100B90001406551FF2CF4695F1DF08C0161617064A
:100BA0001806991FF1CF869571056105089408957F
:100BB000E894BB2766277727CB0197F908950E9411
:100BC0006A0508F48FEF08950E94F7050C94A505B7
:100BD0000E94970538F00E949E0520F0952311F0A1
:100BE0000C948E050C94940511240C94D9050E9444
:100BF000B60570F3959FC1F3950F50E0551F629FA6
:100C0000F001729FBB27F00DB11D639FAA27F00D65
:100C1000B11DAA1F649F6627B00DA11D661F829F8C
:100C20002227B00DA11D621F739FB00DA11D621F71
:100C3000839FA00D611D221F749F3327A00D611D8E
:100C4000231F849F600D211D822F762F6A2F112470
:100C50009F5750409AF0F1F088234AF0EE0FFF1FA3
:100C6000BB1F661F771F881F91505040A9F79E3FFA
:100C7000510580F00C948E050C94D9055F3FE4F388
:100C8000983ED4F3869577956795B795F795E79550
:100C90009F5FC1F7FE2B880F911D9695879597F959
:100CA00008950E946A05880B990B0895EE0FFF1FA7
:100CB0000590F491E02D0994F894FFCF0000000016
:100CC00024018400B1007101E200C000D4004D6F26
:100CD0006973747572653A20006E616E00696E66A4
:0A0CE000006F76660025000D0A0083
:107E0000112484B714BE81FFF0D085E080938100F7
:107E100082E08093C00088E18093C10086E0809377
:107E2000C20080E18093C4008EE0C9D0259A86E02C
:107E300020E33CEF91E0309385002093840096BBD3
:107E4000B09BFECF1D9AA8958150A9F7CC24DD24C4
:107E500088248394B5E0AB2EA1E19A2EF3E0BF2EE7
:107E6000A2D0813461F49FD0082FAFD0023811F036
:107E7000013811F484E001C083E08DD089C08234E0
:107E800011F484E103C0853419F485E0A6D080C0E4
:107E9000853579F488D0E82EFF2485D0082F10E0AE
:107EA000102F00270E291F29000F111F8ED06801E7
:107EB0006FC0863521F484E090D080E0DECF843638
:107EC00009F040C070D06FD0082F6DD080E0C81688
:107ED00080E7D80618F4F601B7BEE895C0E0D1E017
:107EE00062D089930C17E1F7F0E0CF16F0E7DF06D8
:107EF00018F0F601B7BEE89568D007B600FCFDCFD4
:107F0000A601A0E0B1E02C9130E011968C91119780
:107F100090E0982F8827822B932B1296FA010C0160
:107F200087BEE89511244E5F5F4FF1E0A038BF0790
:107F300051F7F601A7BEE89507B600FCFDCF97BE46
:107F4000E89526C08437B1F42ED02DD0F82E2BD052
:107F50003CD0F601EF2C8F010F5F1F4F84911BD097
:107F6000EA94F801C1F70894C11CD11CFA94CF0C13
:107F7000D11C0EC0853739F428D08EE10CD085E9AC
:107F80000AD08FE07ACF813511F488E018D01DD067
:107F900080E101D065CF982F8091C00085FFFCCF94
:107FA0009093C60008958091C00087FFFCCF809118
:107FB000C00084FD01C0A8958091C6000895E0E648
:107FC000F0E098E1908380830895EDDF803219F02E
:107FD00088E0F5DFFFCF84E1DECF1F93182FE3DFCA
:107FE0001150E9F7F2DF1F91089580E0E8DFEE27F6
:047FF000FF270994CA
:027FFE00040479
:00000001FF
